:020000041000EA
:1000000000B50C4B00219960042159610A4919601F
:100010000A490B480160002159600121996001BC27
:10002000002800D0004707480749086003C880F34C
:10003000088808470000001800031F00180200038A
:10004000F40000180001001008ED00E000000000BE
:1000500000000000000000000000000000000000A0
:100060000000000000000000000000000000000090
:100070000000000000000000000000000000000080
:100080000000000000000000000000000000000070
:100090000000000000000000000000000000000060
:1000A0000000000000000000000000000000000050
:1000B0000000000000000000000000000000000040
:1000C0000000000000000000000000000000000030
:1000D0000000000000000000000000000000000020
:1000E0000000000000000000000000000000000010
:1000F0000000000000000000000000002CEC210DBA
:1001000000200420F7010010C3010010C5010010F9
:10011000C1010010C1010010C1010010C101001097
:10012000C1010010C1010010C1010010C701001081
:10013000C1010010C1010010C9010010CB01001065
:10014000CD010010CD010010CD010010CD01001037
:10015000CD010010CD010010CD010010CD01001027
:10016000CD010010CD010010CD010010CD01001017
:10017000CD010010CD010010CD010010CD01001007
:10018000CD010010CD010010CD010010CD010010F7
:10019000CD010010CD010010CD010010CD010010E7
:1001A000CD010010CD010010CD010010CD010010D7
:1001B000CD010010CD010010CD010010CD010010C7
:1001C00000BE00BE00BE00BE00BE00BEEFF3058054
:1001D000103800BEF2EB887110290010342900108D
:1001E0003402001090A31AE700201F49086006C8D7
:1001F00081F3088810471D48006800282FD10DA4FE
:100200000ECC002902D000F012F8F9E71849194A7B
:10021000002000E001C19142FCD1174988471749ED
:1002200088471749884700BEFDE701C901C29A42C5
:10023000FBD3704734290010C00000206C0200205E
:10024000E02A00100000042000000420E02A001032
:10025000001004200010042000000000704709482E
:1002600001F0A2FE0047000008ED00E0000000D011
:1002700070020020F0070020211E0010DD02001097
:10028000151F00105756000006005250ABB36053C4
:100290007028001006005250861C0302902800109F
:1002A000060052505422A29D9C2800100500525076
:1002B000DE65F468E02A0010F8B5C046044B10B5BE
:1002C000002B03D00349044800E000BF10BDC04626
:1002D000000000009C060020F027001010B5074B1E
:1002E00082B01B8801AC2000238002F071F920004D
:1002F00002F080F9002002B010BDC046F0270010C7
:10030000D0231B061B688D4A9900F0B54E468946DE
:1003100051585A4253412F2257464546DE465B42CA
:1003200093439846864BE0B59C4683B000270191E5
:10033000E044002935D0834B0F269B464246FB08FC
:1003400008339B009C5801233D009A460837002C37
:100350001ED031002140264214D05B464A469A58AE
:100360005346AB401A420DD1072208002A409200A2
:1003700090400200EB0874483C339B001A50280060
:10038000019B984724090135002C01D0BD42E0D3E0
:10039000202FD3D103B0F0BCBB46B246A946A0463D
:1003A000F0BD684B00210F229B460124CD082B0095
:1003B000404608339B001B5808000831002B00D131
:1003C0009DE017001F40BC461A420BD05F464E46C8
:1003D000BE59270087403E4204D166465A4F3C35FD
:1003E000AD00EE511D0900D189E017002F402A42CF
:1003F00011D02600451CAE400195B4465D464E46E0
:10040000AE5965462E4206D1019D4F4EED083C3552
:100410003F01AD00AF511D0A71D017002F402A4295
:1004200011D02600851CAE400195B4465D464E466F
:10043000AE5965462E4206D1019D434EED083C352E
:100440003F02AD00AF511D0B59D017002F402A427B
:100450000AD02600C51CAE400195B4465D464E4606
:10046000AE5965462E424ED01D0C48D017002F4085
:10047000BC462A4209D00126071DBE40B2464E4660
:10048000304DAD595646354245D01D0D37D016007A
:100490002E40B4462A4209D00126471DBE40B2462E
:1004A0004E46284DAD59564635423ED01D0E26D0FB
:1004B00016002E40B4462A4210D00126871DBE40A9
:1004C000B2464E461F4DAD595646354206D1664698
:1004D000FD083C3537061C4EAD00AF511B0F0730F1
:1004E000002B0CD04D465E467759250085402F42A3
:1004F00005D1C008144D3C301B0780004351202912
:1005000000D053E746E7019D0F4EED083C353F0311
:10051000AD00AF51A8E765462D04AC466646FF081E
:100520003C37BD00084FEE51AFE76646FD083C354D
:100530003705054EAD00AF51B8E7C0464006002074
:1005400030410140C406002000400140094A10B576
:1005500094464024830063441A68C000624080349B
:1005600014408022520113431C60034B9C4660449C
:10057000416010BD04C0014000400140074B8000B5
:100580009C4660440368C90092000A435A400C2309
:100590001A4080235B0103431A60704704C0014086
:1005A000F8B51D00D0231B061C68060060424441BC
:1005B0002F20644284432748F708844607203040B0
:1005C000800081403800244E3C3064448000BF00ED
:1005D0008151E419002A11D0802292012243116036
:1005E0001C681E4EA400A359002B15D0002D25D049
:1005F000A55101210D2000F097F8F8BDC02292010D
:10060000224311601C68154EA400A359002B0CD086
:10061000002D18D0A551F0E7002DEAD000220D20C2
:100620000F49A55100F0C4F8E3E7002DE5D0002202
:100630000D200B49A55100F0BBF8DEE70D2008495D
:1006400000F0B0F9D4E70D20054900F0ABF9A55151
:10065000D3E7C04630410140004001404006002041
:10066000010300100123D02283401206936293619C
:10067000094A40219446830063441A68C0004A40F6
:10068000803111408022520113431960034B9C4674
:10069000052360444360704704C0014000400140AE
:1006A000024B18688007C00F7047C04600C0064064
:1006B00070B5EFF3108C72B60D4D2B68002BFCD08B
:1006C000BFF35F8F0724CB08C618C05C01230C4022
:1006D000A3401C000440034207D118433070BFF30D
:1006E0005F8F2C608CF3108870BD100001F016FC39
:1006F0002C0100D00021044B044ABFF35F8F02C3DA
:100700009342FAD17047C046000100D0800100D06A
:10071000044A1078431CDBB2172B00D91023137046
:100720007047C0469801002001238340002904D06F
:10073000034A1360034A13607047034A1360FBE7E0
:1007400080E200E000E100E080E100E0024B1030D8
:100750009B688000C058704700ED00E070B50D0048
:10076000EFF3108672B60F4A1368002BFCD0BFF36C
:100770005F8F0D4B10309B6884001B590B4A9342CE
:1007800003D09D4201D001F0E1FB074B9B681D5156
:10079000BFF35F8FBFF35F8F0022024B1A6086F3B7
:1007A000108870BD240100D000ED00E0CD010010E4
:1007B000F0B557464E46DE464546E0B585B00600E4
:1007C00000911700EFF3108B72B66A4A1368002B82
:1007D000FCD0BFF35F8F0025674B5D579A46002D15
:1007E00000DAA9E06B00654C01935B199B00984609
:1007F000A146C1444B4652469B7910361370604B5C
:10080000B6009B6899590B1B2F2B33D95D4B99422E
:1008100000D0ACE0019B42469C465B4B6544AD007A
:1008200063535A4B0232A218043B9B1A1B05584AC9
:100830005B0D651913436B80564B0121AB80FF2381
:10084000AB71009BEF71AB604B460B4319004C4BF7
:100850009B689951BFF35F8FBFF35F8F0022454BB9
:100860001A608BF3108805B0F0BCBB46B246A946AF
:10087000A046F0BD01200A008243D3798C46BB42DA
:1008800031D84546130044491B1B5B415943090DB0
:100890003D4B63533D4B02356519043B5B1B1B0508
:1008A0003B4D5B0D2B43AA464D466B800425AC4661
:1008B0005546E044131F44441B1B1B055B0D1D43A1
:1008C0004B46997100999D8099604946DF71334B81
:1008D00001431360BBE75800C01880002018C1799D
:1008E000B9422FD902000623D356002BF3DA029324
:1008F0002B4B61460393131D9A4604235B429C468F
:10090000E14450464B461B1A1B055B0D9C46204B91
:10091000957198466346404603439380019B5A195C
:100920009200039BA418A380029B1C4AA371009B06
:100930002260E771A3608AE701F008FB00255346B7
:100940005D574FE7908802934005131D9A460315A3
:1009500061469C464046D444634604302018181A29
:10096000E0230005400D1B0218430390C5E701F08A
:10097000EDFA4FE7240100D0EE0700209C01002093
:1009800000ED00E0CD01001000A1FFFFCC01002030
:1009900000E0FFFF01BDFFFFAAAA00000148804759
:1009A00001BD0000F0B5DE4657464E464546E0B56F
:1009B0000C0083B0EFF3108872B65D4A1368002B09
:1009C000FCD0BFF35F8F5B4B5B499A680300103329
:1009D0009F00D5598D4239D0A5424AD0574EAA1B07
:1009E0002F2A33D801229246824091464846544AE3
:1009F0001268104001904846524A1060BFF35F8F62
:100A0000EFF305829346002A35D0934201D001F0DE
:100A10009DFA2A0053469A439068844208D175E0B3
:100A20004B005B189B00F3189868A04234D01A0062
:100A3000062151560029F3DA844253D0019B002B42
:100A400026D04A46404B1A603D4B1A60394B9B6892
:100A5000DD51BFF35F8FBFF35F8F0022344B1A600D
:100A600088F3108803B0F0BCBB46B246A946A04646
:100A7000F0BD0D00EAE72A0053469A43906884428D
:100A8000D6D1062010561300002809DA0D0031E0F7
:100A90004A462C4B1A60D9E706201856002822DB5C
:100AA00042001118890074188A46A1689960E1799A
:100AB000D971062161569971002925DBA488F11AA4
:100AC0006405241554440919E0240905490D24023C
:100AD0002143998013181D4A9B001178F3189971CE
:100AE0001070ABE713005946002914D1FF31917102
:100AF0001749918015490A789A71164A9B1B5B41E8
:100B00005A43120D0A7099E71349E2E7062010567E
:100B100013000028C4DA114A1149D21A083A5002C7
:100B2000400D014399800F4952080A43DA8085E756
:100B3000240100D000ED00E0CD0100109C01002058
:100B400000E100E080E100E080E200E0EE0700204C
:100B500001BDFFFFAAAA000001BD0000D6010020D0
:100B600000F0FFFF00F8FFFF70B5EFF305810124EF
:100B70000443EFF3108C72B6214A1368002BFCD0AB
:100B8000BFF35F8F1F4B05001F4AED1A6D416A438B
:100B9000120D1E4D8900AE6852B27658A6421CD086
:100BA0000621595691421CD012215956914222D009
:100BB0001E215956914220D02A2159560324914290
:100BC00010D0134B19781A708171BFF35F8F002218
:100BD0000B4B1A608CF3108870BDAB680D4C5C50E9
:100BE000EFE700246100091989005B18FF21997162
:100BF00009499980E5E70124F4E70224F2E7C046B9
:100C0000240100D09C010020AAAA000000ED00E011
:100C1000EE070020CD01001001BDFFFF054B064A85
:100C20001360064A136053609360D360136153618D
:100C3000936170478080808000E400E004E400E07D
:100C4000024B9C46614489000160704740000034BB
:100C500010B50400FFF75CFD01002000FFF7F0FF76
:100C6000FF232371BFF35F8F10BDC04610B5040092
:100C7000FFF74EFD01002000FFF7E2FFFF23A380F6
:100C8000BFF35F8F10BDC04683680B4810B5844624
:100C9000614462441201090159189B185C684A6852
:100CA0000120944201D802D00020C0B210BD1A68C1
:100CB0000B689A42F9D8F7E7FFFFFF0F0A4B196854
:100CC000EFF3108072B60A68002AFCD0BFF35F8F82
:100CD0001B68BFF35F8F00221A6080F3108840BF4B
:100CE000002000217047C046D0070020F8B55746C5
:100CF00045464E46DE46E0B598460CAB1C780DAB3B
:100D00001B78070091469A460568002C59D1AC7BA8
:100D1000002C3BD0660029683619033E89194B78B0
:100D2000AB73002B00D1EB7300238B704B700B70F7
:100D30002D4BE218BB6812019B184A461A604246C6
:100D40005A600A9A9A600B9ADA6000238B704B7093
:100D50000B706B7B9B46002B26D022006B6859469C
:100D6000A86898475B465B005B442A68033B002801
:100D700012D058469619B070D118D35C002B00D011
:100D800073705B460C706B735C450ED0F0BCBB4659
:100D9000B246A946A046F8BDD3189C709119925D41
:100DA000002A1CD15B460B706C734A464346387D63
:100DB00000F044FB051E0AD10E9B002BE6D01D70EF
:100DC000E4E7660029683619033E8919B0E75346FF
:100DD000002BF1D12100386800F048FDECE75A7093
:100DE0005B460B706C73E0E7FFFFFF0FF0B5DE466C
:100DF00057464E4645460023E0B58BB00893684BF6
:100E00008200D45800239B46099000F093FA020018
:100E10000B006068EFF3108A72B65646016800292D
:100E2000FCD0B246BFF35F8F21684F7B8C46002F0A
:100E30002ED0A5685B49A94679180901894449461D
:100E40000868496805000E00AD1A9E41002E5FDD5E
:100E500002000B00099800F0F1FA002300229946E5
:100E6000002306920793002398466368BFF35F8FC1
:100E70005A461A608AF310884346002B12D1002884
:100E8000C3D10BB0F0BCBB46B246A946A046F0BDEC
:100E90000023002299460023069207930023002096
:100EA0009846E2E7089B494618023843C047626803
:100EB00005000E00EFF3108A72B61368002BFCD009
:100EC000BFF35F8F002E41DB2B00334302D0236939
:100ED000002B56D12368D97B002905D01A68480019
:100EE00041185218033A57709A7B002A00D19F7319
:100EF000DF73E268013FD35D0133D3555B46236165
:100F00006368BFF35F8F5A461A608AF310887CE7E4
:100F1000002E02D1002D00D09AE70021604600F09B
:100F200023FC4B461A685B68069207934B469B6806
:100F300098464B46DB689946E368DB19013B1B7812
:100F400008931B020343236100208EE72369002BD3
:100F5000C0D0069A079B8021521BB34109068B42E1
:100F600002D30122104B524200210491013103911E
:100F7000494601914146200002970091FFF7B6FED5
:100F8000BCE700F0D7F92A00330012184B4180214A
:100F900009068B42E8D30122034B5242E4E7C046E4
:100FA000B4060020FFFFFF0FFFFFFF7F10B5144CBA
:100FB0006368002B04D00A211248FFF741FE10BDE0
:100FC0002300114A1021206800F0EAFA032000F003
:100FD000A5F9032000F09AFA03200C4900F0E8F983
:100FE000FFF796FB0A4B9C4603232375D0231B0671
:100FF0001B6860446375074B80006060DC60DAE763
:10100000E4010020D0070020890C0010ED0D001035
:1010100040000034B4060020F0B557464E46454621
:10102000DE46E0B585B0019310AB1B780600039354
:1010300000239A46984600927268EFF3108B72B6BE
:101040001368002BFCD0BFF35F8F3568AC7B002C9E
:1010500000D16EE067002B683F19033FDB195A7817
:10106000AA73002A00D1EA73484AA118B26809019C
:10107000521800980199106051600E9991600F9973
:10108000D16042469A705A701A706B7B9946002B59
:1010900000D16BE022006B684946A86898474B4630
:1010A0005B004B442A68033B002856D04846D719BA
:1010B000B870D118D35C002B00D07B704B460C70FD
:1010C0006B734C4553D0F3681B19013B1878736858
:1010D000BFF35F8F42461A608BF310885346002B94
:1010E00008D10002204305B0F0BCBB46B246A94679
:1010F000A046F0BD039B002B46D00E9B00200F990D
:10110000984703000B433FD004000D1E1ADA009AE3
:10111000019B121BAB410092019380221206934265
:1011200004D301231A4C5B4200930194039B9A461B
:1011300082E77368BFF35F8F1C608BF31088012018
:101140004042D0E700F0F6F880220019694112060B
:10115000009001919142E9D3E3E7D3189C70D11933
:10116000D25D002A00D05A704B460B706C73307DF4
:10117000009A019B00F062F982460028A3D021006A
:10118000306800F073FB9EE70020ACE7FFFFFF0F25
:10119000FFFFFF7FF0B5EFF30583CE46474680B5EE
:1011A00005000C0085B0002B12D02A4A0020536A9B
:1011B000A34203D3926A0130AA4204D305B0C0BC53
:1011C000B946B046F0BD1B1B5A1E9341D8B2F5E795
:1011D000214E02930193214B0200009330000B003B
:1011E000FFF71AFF031EE0DD20BF7168EFF31087E1
:1011F00072B60A68002AFCD0BFF35F8FDAB2944659
:10120000FF2230681A40417B61450FD00168894652
:101210005100884649469044414403398978002961
:1012200004D13269934209D1316107E0F1681B0AA8
:101230008A18013A1278DBB29A4207D07368BFF37A
:101240005F8F00221A6087F31088AEE7614600F0D6
:101250000DFBF3E700400540E4010020BD0C001049
:10126000F0B5EFF30582D6464F4646461000C0B5AE
:101270001038EFF3108872B6214C2368002BFCD095
:10128000BFF35F8F0123190081401E4D1F0069636A
:10129000AA461D4D29601D4D2E78AC463500C5402F
:1012A0002F402B4215D053465F6A194B8500EB58EF
:1012B0009F4218D36246174B8E43EB581670BFF30C
:1012C0005F8F0022226088F31088002B06D0984799
:1012D00004E0BFF35F8F276088F31088E0BCBA4654
:1012E000B146A846F0BD0C4B92009C466244136880
:1012F0001360BFF35F8F0023236088F31088EDE74E
:10130000280100D0004005403C700540EF07002058
:10131000D407002030060020D03F054010B5034B15
:1013200001001800024AFFF7C3F910BDED070020C5
:10133000F4270010034B596A0A00986A596A8A42D6
:10134000FAD170470040054070B504000D00174AFF
:10135000536A1900966A536A8B42FAD13000190019
:1013600024184D41AB4216D813D0104B2A005B6AAB
:101370009D4203D90D494B6A9342FCD3934207D156
:101380000A4A02E0516A994202D1916AA142F9D314
:1013900070BDA642E9D9054B5B6A1C005A1CEFD010
:1013A000012201246442E5175242E3E70040054070
:1013B00070B504000D00EFF3108672B61A4A136878
:1013C000002BFCD0BFF35F8F002D1BD02000FFF758
:1013D000BDF9164981420AD02000FFF7BFF901216B
:1013E0002000FFF7A1F90123A340114A1360114B1C
:1013F000A400E550BFF35F8F00220B4B1A6086F309
:10140000108870BD0121A1400A4BA200D5500A4BA3
:1014100020001A788A4305491A70FFF7C3FA0021A1
:101420002000FFF781F9E5E7280100D061120010E4
:101430003860054030060020EF070020F0B54F4629
:10144000D6464646C0B507002B4C616A0D00A66A19
:10145000616AA942FAD18B4208D805D00120E0BCCC
:10146000BA46B146A846F0BDB242F7D9EFF3108AAA
:1014700072B6224801680029FCD0BFF35F8F0125B6
:10148000BD401F491C4C8846097889462943C9B28A
:101490008C46414660460870391D890065630A51D3
:1014A0001849B8004350216A0020294219D0616AC6
:1014B0000800A66A616A8142FAD18B4219D801D12B
:1014C000B24216D8CC450BD00B4B1F221D625D6378
:1014D00001233A4093400C4A136043464A461A702F
:1014E0000120BFF35F8F0022044B1A608AF310883B
:1014F000B5E70020F5E7C04600400540280100D0D0
:10150000EF070020D407002080E200E0EFF3108C0A
:1015100072B60A490B68002BFCD0BFF35F8F012322
:101520008340074A0748136202789A430270BFF368
:101530005F8F00230B608CF310887047280100D068
:1015400000400540EF07002070B506000D001400B4
:1015500000291DD0002A12D0736880689847620065
:101560006B0012195B193168033A033B002808D05D
:101570008A189570C818CB5C002B0BD1047028001A
:1015800070BDCB189C7088188A5C002A05D1057044
:101590002000F5E753700470F1E75A700570F7E723
:1015A00010B583600023CCB24373013342600473EF
:1015B0008373C4730068421C012C05D90133DBB26C
:1015C000137003329C42F9D1FF230B405A00D31809
:1015D000C01800230338437010BDC04670B5050025
:1015E0000C1E07D0630001681B19033BCB185A7807
:1015F000002A01D1200070BD50008018033809185E
:1016000000204E784870210058702800FFF79CFF9A
:10161000310004002800FFF7E1FF0600002C20D075
:101620000028E7D0320021006B68A8689847720054
:10163000630092191B192968033A033B002808D05C
:101640008A189470C818CB5C002B00D053700670B9
:10165000D0E7CB189E7088188A5C002A00D05A7098
:1016600004703400C6E7C046F0B557464546DE462E
:101670004E46E0B50D006F0001687F19033F04007E
:10168000C85D83B00192CA19002850D043001B18CE
:10169000033BCB185E78B446002E1AD1019E002E73
:1016A00042D0E67B002E04D073009B19CB18033B7D
:1016B0005D70A37B002B00D1A573E57300282FD1AB
:1016C0000023537003B0F0BCBB46B246A946A04607
:1016D000F0BD72006244033A8A18517888460021AE
:1016E000517089465970320001002000FFF72CFF2D
:1016F00043468246002B07D05B0021684344033BEE
:10170000CB185A78002A16D1424651462000FFF7DE
:101710001BFF2168019BCA19002BC2D10028CFD022
:1017200043001B18033BCB1800219970C8E7019BAD
:10173000002BB6D1C4E75000801803380918487848
:10174000834648464870587041462000FFF7FCFE2B
:10175000594680462000FFF741FF41460200200025
:10176000FFF7F2FE8046CFE7F0B557464546DE4626
:101770004E46E0B583B00191457B04006F000068E0
:101780007F19033FC15DC219002952D04B005B187D
:10179000033BC3185E78B446002E1CD1019E002E78
:1017A00044D0E67B002E04D073009B19C318033B82
:1017B0005D70A37B002B00D1A573E573002931D1A7
:1017C000002328005370617303B0F0BCBB46B246DF
:1017D000A946A046F0BD72006244033A82185078D0
:1017E0008046002050708146587032002000FFF77C
:1017F000ABFE43468246002B07D05B002168434482
:10180000033BCB185A78002A17D142465146200094
:10181000FFF79AFE019B01002068C219002BC0D17E
:101820000029CDD04B005B18033BC31800209870F3
:10183000C6E7019B002BB4D1C2E7500080180338E3
:101840000918487883464846487058704146200039
:10185000FFF77AFE594680462000FFF7BFFE41465B
:1018600002002000FFF770FE8046CEE770B505004D
:1018700000292CD0437B8B422ED04C00006864188A
:10188000033C0419A278002A21D053009B18033B83
:10189000C25CC6188A4202D11BE0002A08D053005D
:1018A0009B18033BC3185A788A42F6D162785A7063
:1018B000002301222800A3706370FFF7D5FE697B27
:1018C00002002800FFF740FE6873012000E00020BE
:1018D00070BD63783370EBE701221900FFF7C4FE97
:1018E000F2E7C046F8B5CE464746040080B506206C
:1018F0000D0000F021FA061E53D0534B5349E31854
:101900005A1E93418022120494465B429B0D504A1A
:101910009B05634413604F4A136018008A68904324
:10192000FBD1494B4C4AE31859424B4180215B00A3
:1019300049000620995200F0FFF92900C00000F08C
:1019400065FBC30932D14022012190466162A36246
:10195000266BF30736D427008025E36A00232C3753
:101960006D013D432B600620266300F0E5F94146FA
:10197000800000F04BFB236B06009846DB073BD44E
:101980006023E26A5A400E3313402B6043462363C0
:10199000802310229B013B431A60304B23630323B7
:1019A000A3643000C0BCB946B046F8BD2C4A93428F
:1019B0003FD900232B492C4A6162A362266B9046D3
:1019C000F307C8D52200C02330329B011343234ABA
:1019D00006201A60656AA36AAD01ED1800F0ACF943
:1019E000224900F013FBAD020100280000F00EFBBD
:1019F0000021FFF7A9FCAEE72200C02330329B0193
:101A00001343164A06201A60636AA26A9B0199462C
:101A1000914400F091F94B4614499B02994600F01D
:101A2000F5FA0100484600F0F1FA0021FFF78CFCBE
:101A3000A6E77F2299018846024001325208190028
:101A40009044130082E7C0460080FCBF00C0004005
:101A500000E0004000F00040E40700200103000027
:101A6000FEFF0000FFFF0000C0FF3F004E0E000021
:101A700010B50C2082B000F0B7F9FEF711FE002877
:101A800010D08B4B8B488B498B4A186059609860FB
:101A9000D960186159619861D961186259625A62B6
:101AA00002B010BD854CA06700F0A6F90122844B5E
:101AB0001A60636C012BFCD10322824B1A607F4AAF
:101AC000936B012BFCD1013301217F4A7F480093A6
:101AD000043300F037F905237D4A009301217D4846
:101AE00000F030F97C4B5A68FF2A02D8802252005D
:101AF0005A608022734B6E4C12011A6021690029D2
:101B000007D0606900F082FA013043001B18033BE4
:101B1000FDD2E022704B714819680A40026002222F
:101B20001968514001320A40042102609A6811424A
:101B3000FCD080216A4A09011160802252005A605B
:101B4000684B2361684B5968FF2900D85A6003220B
:101B500001215B4B1A60644A93681942FCD0E02370
:101B60001068034061480360126803234A40022161
:101B700013405D4A036093681942FCD080215C4B9E
:101B80000901196080215B4B4900516063615A4B28
:101B90005A68FF2A00D859608022584B12011A60F7
:101BA000E169002907D0606900F030FA0130430094
:101BB0001B18033BFDD2E0234F4A11680B405049EC
:101BC0000B6080214F4B090119608021394B49007E
:101BD0005160E3614C4B5A68FF2A00D8596080225B
:101BE0004A4B12011A60216A002907D0606900F08F
:101BF0000DFA013043001B18033BFDD2E023424A9B
:101C000011680B4042490B608021424B0901196069
:101C100080235B0053608022264BD20223623E4B1E
:101C20005968914200D25A6080223C4B12011A60DE
:101C3000616A002907D0606900F0E8F901304300CB
:101C40001B18033BFDD2E023334A11680B40344993
:101C50000B608021334B090119608023DB02536044
:101C6000154B6362304B5A68FF2A02D8802252001B
:101C70005A6080222D4B12011A60A169002907D0F9
:101C8000606900F0C3F9013043001B18033BFDD22B
:101C9000E023254A11680B4025490B608021254B24
:101CA0000901196080235B005360124BA361F7E6C2
:101CB00070020020006CDC021BB7000000800040B6
:101CC0003CB0004030B00040002F68590080024016
:101CD000008C864700C002403080004030900040B9
:101CE00030A00040001BB7003C8000403C9000400A
:101CF0003CA00040405973075480004054B000405D
:101D00005490004054A000406080004060B000400B
:101D10006090004060A000406C8000406CB00040CB
:101D20006C9000406CA000404880004048B00040EB
:101D30004890004048A00040014B8000C0587047C8
:101D400070020020F8B5040022481E0017000D00A4
:101D500000F05CF90100380000F058F9069B3604E9
:101D60001B031E432368002B22DB1B4B1B49E3187C
:101D70005A1E93418022920194465B421B0B184AE3
:101D80001B0363441360174A13601F008A6897435C
:101D9000FBD1C022231D92011A4321232560A0609C
:101DA00013602368002BFCDA0823E6601360F8BD9B
:101DB0003F2322681340AB42D7D1A3681B051B0DFC
:101DC0008342D2D1EE22E368D2021340B342CCD197
:101DD000EDE7C046001BB7000040FDBF00C000405B
:101DE00000E0004000F000408023024A9B000343D3
:101DF000D362704700800540AA23064A1B01136086
:101E00002133FF33D3600449044B19605368002B1E
:101E1000FCDA70470040024000B0FA000060024067
:101E20002C4B2D4A70B51A602C4A2D4B2D491A6047
:101E300014008B689C43FBD12B4D2C4EB54208D22D
:101E4000013E761BB60808CD984723000134B34203
:101E5000F9D1FFF70DFE264A214B1A60214A9368FB
:101E6000DB43DB01DD09002BF9D14022214B224C61
:101E7000224E9A675A671A67DA66B44208D2236814
:101E80002000002B20D00834FEF7F0FEB442F6D339
:101E90001B4C1C4EC022B168200000F07FF9B460DA
:101EA000FEF728FCFEF7BAFEFFF780F8164C174E37
:101EB000B44208D2013E361BB60808CC98472B0026
:101EC00001359E42F9D170BD0834FEF7C1FEB4421F
:101ED000D5D3DDE700E00040BFCDFBFEFE7F3C0038
:101EE00000F0004000C000405402002064020020C6
:101EF000FFFFFF0100F001404C02002054020020CF
:101F00000000002000ED00E0640200206C020020D0
:101F100000BEFDE710B5FFF7FBFFC0460FB400B5EC
:101F2000084883B000F0D6F9049B002B07D005A920
:101F30001800019100F018F8034800F0CBF90120D7
:101F4000FFF7E6FF182800102828001010B50148F8
:101F5000FFF7E4FF2C28001010B5002800D110BDB9
:101F600000F06CF9FBE7C04610B5094A030014689D
:101F700084B0002C08D0012200910648524203A9E7
:101F8000A047012004B010BD00F0A4F90020F9E73B
:101F900098060020591F001001480421014B1847E2
:101FA00010020020C91F0010142310B5010018886A
:101FB00004331B88984710BD162310B501001888FC
:101FC00002331B88984710BDF8B54746CE4680B50A
:101FD0000F1E19D01423994604330400002501264E
:101FE00098464B461888434621681B88984701C489
:101FF000431E9841013540420640AF42F1D13000C6
:10200000C0BCB946B046F8BD0126F8E7114A936F47
:102010009B0813D210665166002905D0FFE7FFE741
:10202000FFE7516F106F704704B5002801D0002002
:10203000C04300F0CDFB002104BDC046F0B5146ED6
:10204000556E576F166FFFF7E5FF146655665767B5
:102050001667F0BD000000D010B50148FFF75EFF25
:1020600038280010132370B51D78012D15D010DD10
:102070001B48FFF7A1FF1B4C01008022200000F04D
:102080008DF8022D06D01848FFF78EFF174B186009
:1020900070BD144C164BA364F5E7164B114C23602E
:1020A0006360A360E36023616361A361E361236212
:1020B0006362A362E36223636363A363E3632364F2
:1020C0006364A364E36423656365A365E3652366D2
:1020D0006366A366E36623676367A367E367D9E77D
:1020E00053440000980300204C330000CC0600202D
:1020F000F92000105920001007B5604601880A0A2F
:102100000230DF2AFAD1C9B2820804D3028840889B
:102110000004104300E00068014A5050039007BDDE
:102120009803002010B50148FFF7F8FE5028001072
:10213000132310B510481C78FFF73EFF0100012C57
:102140000AD003DD80220D4800F028F80C48FFF784
:102150002BFF0C4B186010BD084C5422200000F0DF
:102160001DF82200084980322368002B00D121602D
:1021700004349442F8D1E9E753460000D006002029
:102180004C330000CC06002025210010014804211A
:10219000014B184720020020C91F0010014B5B684B
:1021A0001847000020020020F0B5C64600B5437D68
:1021B00007000D001600002B38D0002A2EDD00216C
:1021C0006A1E90466A5C037D4C1C00200A2A0CD0D3
:1021D000A64216D043461B5D21000D3B5A42534197
:1021E0006A5CDBB24C1C0A2AF2D1002BF0D1884287
:1021F00017DB022110483B689847A64207D0200011
:10220000E8E7864203DD311A3B6828189847AD1984
:10221000013D2B780D3B5A4253413B7580BCB8467B
:10222000F0BD091A3B6828189847E2E703681100D7
:1022300028009847F2E7C046F8280010F0B5CE46CF
:10224000474680B583B06B460600DD1D2870FFF75A
:1022500071F800231A4A12184B41802109068B425B
:1022600002D30122174B524217490800884600F05A
:10227000B7FA164B81461C68002C14D0144F02E0AC
:102280002469002C0FD02368002BF9D03B68002B69
:1022900001D0A342F4D1200001222900FFF784FFDE
:1022A0002469002CEFD14B46002B05D1300003B040
:1022B000C0BCB946B046F0BD404600F081FAF5E733
:1022C00040420F00FFFFFF7F4C02002090060020DD
:1022D00094060020F0B5DE4657464E464546E0B52A
:1022E00085B0070000F0DAF90600FFF723F80023B5
:1022F0002B4A12184B41802109068B4202D301223E
:10230000284B5242284908008B4600F069FA274BB7
:1023100001901C689A46002C3BD0254B984602AB96
:10232000DD1D0A23994602E02469002C17D023689A
:10233000002BF9D043461B68002B01D09C42F3D1FF
:10234000200032003900FFF72FFF4B46200001220A
:1023500029002B70FFF728FF2469002CE7D1019B8F
:10236000002B18D153461C68002C06D06368002B44
:102370000BD098472469002CF8D1300005B0F0BC90
:10238000BB46B246A946A046F0BD2469002CEDD15B
:10239000F3E70028F1D0584600F012FAE2E7C04611
:1023A00040420F00FFFFFF7F4C02002090060020FC
:1023B000940600200A4A1368002B05D10CE01A008D
:1023C0001B691032002B07D09842F8D1002902D1A6
:1023D00003691360016170470029FCD01060FAE7BF
:1023E0009006002010B500F0CBF8012010BDC046CB
:1023F000F0B5002915DD0E4B0D271A680D4B0E4C5C
:10240000D3185D426B41451820215B001E5F0478A4
:10241000A64207D093691942FCD101301460A8424A
:10242000F5D1F0BD93691942FCD11760F2E7C046BF
:10243000E80700200080FCBFE4070020214B70B5B6
:1024400004000D1E1E682CDD002010211E4B013CD7
:102450001A689369194215D1013093691942FCD168
:10246000136823548542F4D1002E09D0502338211B
:102470009363536B3432194080235B01134319601B
:1024800028000DE0002E09D0502338219363536BB0
:102490003432194080235B011A43116000280ED0AA
:1024A00070BD002E0BD050223821074B1B689A6359
:1024B0005A6B3433114080225201134319600320B8
:1024C0004042EDE748060020E8070020064B10B523
:1024D0001B68002B06D00021044A12689163044A4D
:1024E0001068984710BDC04648060020E807002045
:1024F0004C0600201D4BF0B51A68C64698461C4B8A
:102500000E00D31859424B411A4F14331C000500DA
:1025100000B53B68002807D0002B11D0164B3D605A
:102520001E6080BCB846F0BD002BF7D09063002140
:102530002000FEF7F9F820001049FEF733FAEDE726
:1025400020000E49FEF70AF901212000FEF7ECF801
:102550004346502238211B689A635A6B343311402A
:102560008022520113431960D8E7C046E8070020D3
:102570000080FCBF480600204C060020CD2400103F
:102580000C4B10B51B780C4B0C4C1B780C4B0221E0
:1025900000202360FDF7DAFF02210120FDF7D6FFBE
:1025A000E12120684902FFF79DF901210548FFF765
:1025B00001FF10BD302900102C290010E807002071
:1025C000004003403002002010B500F035F810BD87
:1025D00010B5040000F020F8601C00F00DF8012296
:1025E0000821034B6078FDF7DBFFFFF7FBFE10BD12
:1025F000C9250010FEE7C04610B504000078FEF7BC
:1026000031F801232078D022834012069362012101
:102610000022FDF7B3FF10BD10B504000078FEF7EF
:1026200021F801232278D021934009064B62014B07
:102630001A7010BDEC070020D022012110B5064B06
:102640001206187853680C00C3408440194201D028
:10265000946110BD5461FCE7EC07002010B5010047
:1026600000230022002000F047F810BD70B5074C91
:10267000074D641BA41005D0013CA300EB589847FC
:10268000002CF9D100F098F870BDC0466C02002013
:102690006C0200207047C0467047C04610B58307E3
:1026A0000AD00300032102E001330B4205D01A785F
:1026B000002AF9D1181A10BD030019680C4A0D4CF4
:1026C0008A188A4322420FD15968094A04338A186A
:1026D0008A43224208D15968054A04338A188A433A
:1026E0002242F1D000E001331A78002AFBD1E1E761
:1026F000FFFEFEFE80808080F0B5D6464F464646FF
:102700009846244BC0B5060018689A460F009146BB
:10271000FFF7C0FF204B1D68002D32D053466C6878
:1027200018681F2C30DC002E0CD1631C0234A4006E
:102730006B606751FFF7B0FF0020E0BCBA46B146BE
:10274000A846F0BD49468822A300EB189950C42141
:1027500049008C46AC446146873AA24009689146DC
:102760001143624611608421424649005A50022EAC
:10277000DBD129004A468D31FF310B6813430B60D2
:10278000D3E7064D1D60C9E7FFF786FF01204042F1
:10279000D3E7C04648020020980400209C04002093
:1027A000034B10B5002B02D00248FFF757FF10BDB6
:1027B000000000006D260010F8B5C04600000000C3
:1027C00001B40248844601BC604700BF5D0100209F
:1027D00001B40248844601BC604700BF8501002067
:1027E00001B40248844601BC604700BFC10000201C
:1027F0000D060000486172647761726520616C614A
:10280000726D20256420616C726561647920636C4F
:1028100061696D65640000000A2A2A2A2050414E31
:102820004943202A2A2A0A000A00000048617264EB
:1028300020617373657274006D697373696E6720CC
:10284000646F75626C652066756E6374696F6E0087
:102850000000000072656C6561736500626F6F74E3
:10286000325F67656E657269635F303368000000D0
:10287000312E352E31000000616461667275697415
:102880005F666561746865725F7270323034300003
:10289000627574746F6E5F706F6300004A616E20C2
:1028A0002035203230323400554152542073746444
:1028B000696E000055415254207374646F75740042
:1028C0005541525420737464696E202F20737464D0
:1028D0006F75740006005250D3F0754254280010F2
:1028E00006005250E182887F5C280010060052509A
:1028F000BBFF3CB6782800100D0A000006005250BD
:1029000053B4F4A1C02800100800525092000000F7
:10291000D4280010E028001088020010EC280010D5
:1029200094020010A0020010AC0200100829001050
:04293000FC2800106F
:10293400F0B5C646150000B504001E000268EFF3AA
:10294400108172B61368002BFCD0BFF35F8F042391
:10295400E356002B2DDB2268BFF35F8F002010604D
:1029640081F31088D0221206127852B290469A420D
:1029740003D1002080BCB846F0BD00270BE02368DB
:10298400BFF35F8F1F6081F310882800310000F0CF
:1029940033F80028EDD12268EFF3108172B6136882
:1029A400002BFCD0BFF35F8F23797F2BE7D94346FD
:1029B40002E0D0231B061B6823712368BFF35F8FDB
:1029C40000221A6081F310880120D3E70268EFF334
:1029D400108172B61368002BFCD0BFF35F8FFF2306
:1029E40003710368BFF35F8F00221A6081F31088BC
:1029F40040BF70477047C04601B40248844601BCDA
:102A0400604700BF95110010100000000000000096
:102A140000000100000000000000000000000200AF
:102A2400000000000000000000000300000000009F
:102A3400000000000000FF000000000001B548682D
:102A440001318E460047704609380149884701BD67
:102A5400690B0010FC010020000000009802002017
:102A64005006002000000000000000006006002066
:102A74000000000000000000100000000000000042
:102A8400503300004C330000543300005233000034
:102A94004D5300004D430000533400004334000004
:102AA400F1230010000000003D240010F524001064
:102AB40000000000000100002C06002000000000BF
:102AC400000000008D210010991F001065200010E7
:0C2AD40031210010A1270010BD020010ED
:04000005100001E9FD
:00000001FF
