:020000041000EA
:1000000000B50C4B00219960042159610A4919601F
:100010000A490B480160002159600121996001BC27
:10002000002800D0004707480749086003C880F34C
:10003000088808470000001800031F00180200038A
:10004000F40000180001001008ED00E000000000BE
:1000500000000000000000000000000000000000A0
:100060000000000000000000000000000000000090
:100070000000000000000000000000000000000080
:100080000000000000000000000000000000000070
:100090000000000000000000000000000000000060
:1000A0000000000000000000000000000000000050
:1000B0000000000000000000000000000000000040
:1000C0000000000000000000000000000000000030
:1000D0000000000000000000000000000000000020
:1000E0000000000000000000000000000000000010
:1000F0000000000000000000000000002CEC210DBA
:1001000000200420F7010010C3010010C5010010F9
:10011000C1010010C1010010C1010010C101001097
:10012000C1010010C1010010C1010010C701001081
:10013000C1010010C1010010C9010010CB01001065
:10014000CD010010CD010010CD010010CD01001037
:10015000CD010010CD010010CD010010CD01001027
:10016000CD010010CD010010CD010010CD01001017
:10017000CD010010CD010010CD010010CD01001007
:10018000CD010010CD010010CD010010CD010010F7
:10019000CD010010CD010010CD010010CD010010E7
:1001A000CD010010CD010010CD010010CD010010D7
:1001B000CD010010CD010010CD010010CD010010C7
:1001C00000BE00BE00BE00BE00BE00BEEFF3058054
:1001D000103800BEF2EB8871E45200100853001092
:1001E0003402001090A31AE700201F49086006C8D7
:1001F00081F3088810471D48006800282FD10DA4FE
:100200000ECC002902D000F012F8F9E71849194A7B
:10021000002000E001C19142FCD1174988471749ED
:1002200088471749884700BEFDE701C901C29A42C5
:10023000FBD3704708530010C00000200C030020BF
:1002400054550010000004200000042054550010F4
:10025000001004200010042000000000704709482E
:1002600003F042F80047000008ED00E0000000D075
:10027000100300208C080020F91F0010DD02001080
:10028000B91F00105756000006005250ABB3605320
:10029000D04D001006005250861C0302F04D001095
:1002A000060052505422A29DFC4D001005005250F1
:1002B000DE65F46854550010F8B5C046044B10B51F
:1002C000002B03D00349044800E000BF10BDC04626
:1002D00000000000380600205843001010B582B01E
:1002E00001AC064B1B882380200003F015FF200083
:1002F00003F01FFF002002B010BDC046584300109D
:1003000010B58300084A944663441A68402462404A
:10031000803414408022520113431C60C000034B00
:100320009C466044416010BD04C001400040014053
:1003300080000B4B9C46604400290DD00823002A06
:100340000CD004221343026853400C221A4080232D
:100350005B0103431A6070470023F0E70022F1E7D6
:1003600004C0014070B50400D0231B061D680D4B6E
:10037000AA00D358002B0AD0002803D0094BAD00A7
:10038000EC5070BD08490D2000F0D4FAF6E70028C3
:10039000F7D0044BAD00E850034900220D2000F0D7
:1003A000C1F9EEE7B8050020390400100723034027
:1003B0009B00C00899403C308000014BC150704701
:1003C00000400140F8B507000C0016001D00FFF7C3
:1003D000EDFFFB089B00ED180720384080008440AB
:1003E000002E04D080239B012B431C60F8BDC0234A
:1003F0009B012B431C60F9E710B5D0231B061B683B
:10040000002B03D0024BFFF7DDFF10BD014BFAE7D5
:10041000304101400041014070B514001D00FFF75C
:10042000EBFF2800FFF79EFF002C00D170BD0121DB
:100430000D2000F03DF9F9E7F0B5D6464F464646A7
:10044000C0B5D0231B061F681D4BBA00D358984671
:10045000002F03D01B4B9946002623E01A4B9946E8
:10046000FAE724090135002C1BD033000833AB42D6
:1004700017D90F231A00224092462342F1D0134B82
:10048000BA00D2580123AB401342EAD151462800AA
:10049000FFF78CFF4346002BE3D051462800C047AE
:1004A000DFE708361D2E06D8F30808339B004A46BE
:1004B0009C583500D7E7E0BCBA46B146A846F0BD27
:1004C000B805002030410140004101406006002095
:1004D00010B501238340D022120693629361052157
:1004E000FFF70EFF10BD0000034B1B6802201840F1
:1004F000431E9841C0B2704700C00640EFF3108021
:1005000072B6034B1B68002BFBD0BFF35F8F7047A5
:100510002C0100D0BFF35F8F024B00221A6080F3E2
:10052000108870472C0100D0F8B506000C001500AB
:10053000FFF7E4FFE308F718F15C072222400123EC
:1005400093400B4205D1DBB20B433B70FFF7E2FF58
:10055000F8BD2100280001F0CBFD0000002307E0DA
:10056000054A9A189200BFF35F8F00211160013392
:100570001F2BF5D97047C04640000034054A10785B
:10058000431CDBB21370172B02D9130010221A7010
:100590007047C04638020020074B9B68103080002F
:1005A0001950BFF35F8FBFF35F8F044B00211960B9
:1005B00082F310887047C04600ED00E0240100D0AF
:1005C00010B50388DA0A1C2A05D15B055B150233D6
:1005D0005B00C01810BD034B034A0448B12101F071
:1005E000EFFCC0465C430010884E001074430010BE
:1005F00010B5091A0B1F0A4A88180A4A904208D8EF
:10060000C90706D45B105B055B0D0748184380B231
:1006100010BD064B064A0748A32101F0D1FCC04695
:10062000FC070000FE0F000000E0FFFFC0430010C9
:100630007C4E00107443001010B5091A04394A08A2
:10064000090B08D14905490D064B0B430380064BA6
:100650001343438010BD054B054A0648AB2101F00A
:10066000AFFCC04600F0FFFF00F8FFFFF0430010B2
:10067000504E00107443001001238340034A106859
:100680001840431E9841C0B27047C04600E100E0E8
:10069000002904D0034B1860034B18607047034BCC
:1006A0001860FBE780E200E000E100E080E100E0AC
:1006B00010B5012383401800FFF7EAFF10BD0000CA
:1006C000024B9B6810308000C058704700ED00E07E
:1006D00070B504000D00EFF3108672B60C4B1B686A
:1006E000002BFBD0BFF35F8F2000FFF7E9FF094B22
:1006F000984201D0A84205D1320029002000FFF71E
:100700004BFF70BD044B054A0548862101F058FC9B
:10071000240100D0CD01001000440010B04E0010A4
:1007200074430010F0B5DE4657464E464546E0B5E8
:1007300089B0814601911500EFF3108A72B66D4BB6
:100740001B68002BFBD0BFF35F8F6B4B00269E57BF
:10075000002E41DB7400A419A40068482418062266
:10076000A256654B1A70664B9A684B4610339B0035
:10077000D35898461F00181A2F2839D9614B98452D
:1007800030D105AF604B3B80604973009B469819A0
:1007900080005A4B984640440230FFF729FF78808A
:1007A0005B4BBB80FF23BB71FD71019B0793330043
:1007B0005B449B00434407CF07C301231C43A0466F
:1007C000524641464846FFF7E7FE09B0F0BCBB463B
:1007D000B246A946A046F0BD4E4B4F4A4F48D721DE
:1007E00001F0EEFB4E4B4C4A4C48DE2101F0E8FB99
:1007F00001380C2102F0CCFD002912D101239F43C6
:10080000BB463B000027DA79AA4211D90621595686
:1008100000290CDB4A005218920038491F008B183F
:10082000F1E7404B3C4A3D48EA2101F0C9FB1F007B
:10083000002F2ED005AB3C4A1A80813A5A800623FD
:10084000FB560293002B17DA384805AB9B4698807D
:10085000029A9A71DD71019A0792381D2100FFF703
:10086000C7FEB880BE71254B7200921992009B188A
:100870005A4613CA13C3A3E7381DFFF7A1FE0100B0
:100880007000801980001D4BC0180430FFF7B0FEC7
:10089000DBE705AF1C4B3B801C49730002939B199F
:1008A0009B00164A90461A0042440392901CFFF7A0
:1008B0009FFE7880039A101D5946FFF799FEB88075
:1008C0001B4B5A464146521A524153431B0DBB71B2
:1008D000FD71019A0792029B9B199B00434407CF2D
:1008E00007C3114B5A461380813B538001231C439D
:1008F000A04665E7240100D08A0800203C020020C1
:1009000000ED00E0CD01001000A1FFFF6C0200200F
:1009100001BDFFFF38440010984E001074430010D2
:1009200060440010884400100148000001BD000030
:10093000AAAA0000F0B5CE46474680B583B00600AF
:100940000D00EFF3108872B64F4B1B68002BFBD0E5
:10095000BFF35F8F4D4B9A6834001034A300D75813
:100960004B4B9F4207D0AF4200D18BE00197494BE0
:10097000FB1A2F2B09D9424639003000FFF70CFE35
:1009800003B0C0BCB946B046F0BD3000FFF774FEFE
:10099000814600213000FFF78BFEBFF35F8FEFF33E
:1009A0000581002901D08C4211D10123019C9C4377
:1009B0000020A368AB4212D00622A256002A0DDB0B
:1009C00053009B189B00334A2000D418F1E7324BA8
:1009D000324A36213248FF3101F0F2FA2000AB42B0
:1009E00049D106256557002D2BDB2A4B6A00521989
:1009F00092009B189A68A260DA79E2719B795BB2E7
:100A0000A371002B0FDA2748A080224B6A005219ED
:100A100092009B18244A117899711570494630004C
:100A2000FFF746FEA7E7680040198000194BC01881
:100A30000430FFF7C5FD0100231D1800FFF7D8FDA6
:100A4000E2E7002912D100280ED0FF238371174B53
:100A5000838015490B78A3710E4A154BA41A644183
:100A600063431B0D0B70D9E7094FF2E71149201DB5
:100A7000FFF7E2FDD2E7104B084A6A210848FF3130
:100A800001F09EFA024F76E7240100D000ED00E06D
:100A9000CD0100103C020020FC440010684E001004
:100AA0007443001001BD00008A08002001BDFFFF53
:100AB000AAAA0000760200203045001070B501227D
:100AC00002432E4BD31A2F2B28D8EFF30583002B8C
:100AD0002BD0EFF3108C72B6294909680029FBD09E
:100AE000BFF35F8F254C274905002D1B6D416943DE
:100AF000090D4CB2244989689B00C95891421BD00A
:100B00000021032932D81D4B4A00521892009B182D
:100B10009B795BB2A3421FD00131F2E71B4B1C4A09
:100B2000C7211C48490001F04BFA1B4B184A92217F
:100B30001848FF3101F044FA134A92681749D1501E
:100B4000174B1A7882711C70BFF35F8F0C4B002219
:100B50001A608CF3108870BD084B4A005518AD0020
:100B60005D19FF26AE710F4AAA80E9E70E4B084ACD
:100B7000D1210848490001F023FAC0463C02002078
:100B8000240100D0AAAA000000ED00E038450010C2
:100B9000344E00107443001060450010CD01001069
:100BA0008A08002001BDFFFF6C4500100022044BA5
:100BB00002E0044902C30132072AFAD97047C0464D
:100BC00000E400E080808080024B9C466144890004
:100BD000016070474000003410B50400FFF7CEFC00
:100BE00001002000FFF7F0FFFF232371BFF35F8FA9
:100BF00010BD10B50400FFF7C1FC01002000FFF795
:100C0000E3FFFF23237100236371BFF35F8F10BDE8
:100C1000084B5B6A994209D8064A926A824207D217
:100C2000994201D0012002E0002000E0002070473E
:100C30000120FCE70040054010B500290AD00368F8
:100C40001B7B8B4206D38068054B9C46614409019F
:100C5000401810BD034B044A04483C2101F0B0F990
:100C6000FFFFFF0F10460010C04F00103446001069
:100C7000F8B504001700FFF7DFFF06684568390084
:100C80002000FFF7D9FF026843680120AB4201D87A
:100C900002D00020C0B2F8BDB242FBD8F9E7000094
:100CA00010B5002B02DB0260436010BD024B034A0B
:100CB00003483F2101F084F97C4600108C4F00105E
:100CC0009846001010B582B00400049805991218D7
:100CD0004B41002B09DB6846FFF7E2FF009A019BBE
:100CE00022606360200002B010BD01225242014B1D
:100CF000F1E7C046FFFFFF7F10B5002908D0037B56
:100D00008B4205D300684B005B18033BC01810BD35
:100D1000024B034A0348682101F052F9EC460010E7
:100D2000684F00100847001010B5437B8B4201D17B
:100D3000012010BDFFF7E0FF8378002B01D10020D8
:100D4000F7E70120F5E770B50400857B002D01D1A0
:100D5000280070BD2900FFF7CFFF4378A373002B55
:100D600000D1E3730023837043700370F0E7000049
:100D7000F8B506000C001500FFF7BEFF0700002CB9
:100D80000DD0002D11D0AC4215D029003000FFF756
:100D9000B3FF84703B78002B13D13D70F8BD0A4B34
:100DA0000A4A0B486F2101F00BF90A4B074A084821
:100DB000702101F005F9084B044A0548712101F042
:100DC000FFF843703D70E9E760470010444F0010A2
:100DD000084700106C4700107847001070B50600F7
:100DE0000D001400002914D0002A14D04368806834
:100DF0009847002806D0220029003000FFF7B8FFEE
:100E0000280007E02A0021003000FFF7B1FF200092
:100E100000E0100070BD0800FCE7000070B50400A1
:100E20000D1E0CD0FFF768FF002383704370037022
:100E3000617B2A002000FFF7D1FF607370BD034B78
:100E4000034A0448A52101F0BBF8C04690470010B2
:100E5000584F00100847001070B504000D1E0FD049
:100E6000FFF762FF00280BD1E17B00290ED1A37BA5
:100E7000002B03D1E37B002B0DD1A573E57370BD6F
:100E8000084B094A0948F62101F09AF82000FFF7BB
:100E900033FF4570EBE7064B034A0448FB2101F0A2
:100EA0008FF8C04694470010344F001008470010D8
:100EB000B847001010B5002907D003681B7B8B4290
:100EC00003D3C0680139401810BD034B034A0448DE
:100ED000412101F075F8C04610460010204F001067
:100EE0003446001070B505000C00080000F046FC08
:100EF0000949200000F086FBFFF740FB074B9C46AA
:100F00006044800068602C75D0231B061B786B75CD
:100F1000034BA400E55070BD0D10001040000034DC
:100F2000500600200A4B1A68EFF3108172B613685E
:100F3000002BFCD0BFF35F8F054B1B68BFF35F8FA7
:100F400000221A6081F3108840BF00200021704702
:100F50006C08002010B582B0040000F015FB020000
:100F60000B006846FFF79CFE009A019B22606360BD
:100F7000200002B010BD0000F0B583B00700019260
:100F80001D000AAB1C780BAB1E78002C0BD0006840
:100F90002100FFF7C9FE002809D0194B194A1A4849
:100FA000672101F00DF80068FFF7CDFE0400002C6A
:100FB00002D1200003B0F0BD21003800FFF73CFE55
:100FC000019B03604560089B8360099BC360386890
:100FD0002100FFF723FFA042EBD1387D019A2B00BF
:100FE00000F058FB051E01D0002E04D00C9B002BF6
:100FF000DFD01D70DDE73868210000F005FDF5E762
:10100000CC470010744F001034460010F0B5DE4697
:1010100057464E464546E0B58FB00B900021794BC0
:101020008200D458894683E029002000FFF704FE9F
:10103000804602684368921BBB41002B09DD434692
:101040001A685B680B9800F025FB00239846002681
:101050008AE0002B01D1002AF1D10021584600F08E
:10106000C9FC0700A84215D143461A685B6808927C
:10107000099343469E68DB689846002E10D02900ED
:101080002000FFF717FF037899461B021F432761D3
:10109000002069E05C4B5D4A5D488E2100F090FFC6
:1010A0005C4B5A4A5A48922100F08AFF2369002B70
:1010B00000D177E0BB4219D106980799002342423C
:1010C0008B4100920193089A099B0CA8FFF7FAFD47
:1010D0000C9A0D9B00210491013103910295414628
:1010E000019100962000FFF747FF16E04A4B474A60
:1010F0004748A12100F064FF069A079B002B01D10D
:10110000002A52D120682900FFF7A6FE29002000FE
:10111000FFF7D0FE03780133037000232361626878
:10112000BFF35F8F13608AF310880120002861D01D
:101130000CA8FFF70FFF0C9E0D9F002200230892C2
:1011400009936268EFF3108A72B61368002BFCD023
:10115000BFF35F8F23689B465D7B002D00D063E764
:1011600000239846002600206368BFF35F8F0022AB
:101170001A608AF31088002ED8D04B461F022F43E6
:1011800041463800B047069007916268EFF3108A35
:1011900072B61368002BFCD0BFF35F8F079B002B48
:1011A00000DA83E7079B002BA6DD2369002BA9D07B
:1011B000BB4219D10CA8FFF7CDFE0C9A0D9B0698E7
:1011C0000799009001910CA8FFF77CFD0C9A0D9BEC
:1011D000002104910131039102954146019100964D
:1011E0002000FFF7C9FE98E70B4B084A0848A421E6
:1011F00000F0E6FE0FB0F0BCBB46B246A946A046E2
:10120000F0BDC04650060020F4470010A44F001067
:10121000344600100C4800101848001010B50C4B54
:101220005B68002B04D00B480A21FFF7CDFC10BDF2
:10123000074C094A20682300102100F046FB0320D8
:1012400000F096F903212000FFF74CFEEBE7C046C3
:10125000840200206C080020710C001010B5064BB1
:101260005B68002B01D0044810BD044B044A0548BC
:101270005E2100F0A5FEC046840200205448001004
:10128000084F001034460010F0B5DE4657464E4673
:101290004546E0B58DB0060090461F00169B9A4665
:1012A000179B994618AB1B780793272302AA9446ED
:1012B000634400221A7021E001003000FFF7FAFDBC
:1012C00000783CE00698002B5CD0079B002B59D09F
:1012D0004946D04704000D0003000B4359D00029B4
:1012E00040DB08A8FFF736FE089A099B0094019599
:1012F00008A8FFF7E7FC089B9846099F7268EFF380
:10130000108B72B6136859424B41D9B20691002B2B
:10131000F8D1BFF35F8F273302AA94466344049346
:101320000023039302934B46019353460093424696
:101330003B003000FFF720FE0400051EBCD173689F
:10134000BFF35F8F002119608BF31088002D17D039
:10135000272302AA944663441B78002BB2D10002D3
:101360002043B0E700236242AB4100920193424622
:101370003B0008A8FFF7A6FC089B9846099FBDE71D
:10138000012040420DB0F0BCBB46B246A946A04683
:10139000F0BD0698F6E7F0B5C64600B584B0050086
:1013A000884616001F000AAB1C78FFF757FF02940F
:1013B000019700962A004346FFF766FF04B080BC01
:1013C000B846F0BDF0B5C64600B505000C1E42D0CB
:1013D0004268EFF3108772B61368002BFCD0BFF39E
:1013E0005F8FE6B22B68984631001800FFF79CFC2F
:1013F00000282AD02B69A34213D0240AE4B231007A
:101400002800FFF757FD0378A34211D000206B6836
:10141000BFF35F8F00221A6087F3108880BCB84644
:10142000F0BD0E4B0E4A2C210E48FF3100F0C8FDD6
:101430003100404600F0E8FA0028E8D10A4B084A9B
:1014400099210848490000F0BBFD2B69A342DED179
:1014500000232B61DBE70020E0E7C046784800105E
:10146000F04E0010344600109C48001010B50400E7
:10147000FFF7F4FE2100FFF7A5FF10BD30B583B0E4
:1014800005000C00EFF30583002B0FD10B4A00235E
:101490000093FFF780FF00280BDD20BFFFF7E6FF7A
:1014A00028002100FFF7B4FB03B030BDFFF7B0FB0D
:1014B000FAE728002100FFF7ABFBF5E7250F001046
:1014C00010B5002B02DB0260436010BD024B034AE3
:1014D00003483F2100F074FD7C460010E84F0010E7
:1014E0009846001070B5EFF305801038EFF3108CBC
:1014F00072B6194B1B68002BFBD0BFF35F8F012224
:101500001300834015494B6315490B601549097851
:101510000C00C440224213D0104A546A124A85007B
:10152000AA58944205D3114AAA580E4C99432170E7
:1015300007E00A4A031D9B0099589950002200E0D9
:101540000022BFF35F8F044B002119608CF31088D9
:10155000002A00D0904770BD280100D0004005400F
:101560003C7005408B08002070080020A805002072
:1015700010B50100024A034B1800FEF7D5FF10BD5D
:10158000A048001089080020044B5B6A034A906A57
:101590001900536A9942F9D17047C046004005408E
:1015A000084B5B6A01E0074B5B6A8B42FBD301E0AF
:1015B000044B5B6A8B4203D1024B9B6A8342F7D395
:1015C0007047C04600400540F0B583B004000D00F0
:1015D000FFF7DAFF06000F0022002B0092197B4173
:1015E000994202D804D1904202D901225242D31723
:1015F0006846FFF765FF00980199FFF7D1FF03B038
:10160000F0BD000070B504000E00EFF3108572B657
:101610001B4B1B68002BFBD0BFF35F8F002E1CD031
:101620002000FFF74DF8174B83420BD01900200024
:10163000FFF74EF801212000FFF73AF80123A340FD
:10164000114A1360114BA400E650BFF35F8F0C4B9F
:1016500000221A6085F3108870BD0C4BA200002197
:10166000D1500122A2400A490B7893430B700549DF
:101670002000FFF75FF900212000FFF719F8E4E7E9
:10168000280100D0E514001038600540A8050020AE
:101690008B080020F0B5DE4600B584B004001500CC
:1016A00001921E000293FFF76FFF03958E4202D84E
:1016B0004ED185424CD9EFF3108B72B6274B1B6885
:1016C000002BFBD0BFF35F8F254A17780125A5407B
:1016D000EBB23B431370234B5D63221D92000199D3
:1016E000D150214AA100029888501B6A2B4212D186
:1016F0001C4B1B6C2B4208D00020BFF35F8F174B95
:1017000000221A608BF3108823E0184B184A1948FE
:10171000C52100F055FCFFF737FF8E4214D802D1E7
:10172000039B834210D80E4B1B78BB420ED00D4B4F
:101730001D625D631F222240012393400E4A136005
:10174000074B1F700120D8E70020D6E70120D4E71F
:10175000012004B080BCBB46F0BDC046280100D0CB
:101760008B0800200040054070080020C44800108D
:10177000CC4F0010E848001080E200E0EFF3108C3E
:1017800072B60B4B1B68002BFBD0BFF35F8F01239E
:101790008340084A136208490A789A430A70BFF3E3
:1017A0005F8F034B00221A608CF310887047C0468D
:1017B000280100D0004005408B08002010B500290A
:1017C00008D0037B8B4205D300684B005B18033BBA
:1017D000C01810BD024B034A0348682100F0F0FB1B
:1017E000EC4600104050001008470010F8B5060005
:1017F0000C001500FFF7E2FF0700002C0DD0002DB4
:1018000011D0AC4215D029003000FFF7D7FF84700B
:101810003B78002B13D13D70F8BD0A4B0A4A0B48A8
:101820006F2100F0CDFB0A4B074A0848702100F0F9
:10183000C7FB084B044A0548712100F0C1FB437007
:101840003D70E9E7604700102C5000100847001079
:101850006C4700107847001070B506000D001400AA
:10186000002914D0002A14D04368806898470028C3
:1018700006D0220029003000FFF7B8FF280007E05B
:101880002A0021003000FFF7B1FF200000E0100027
:1018900070BD0800FCE770B50500002343730133F9
:1018A0008373037BC373012406E021002800FFF744
:1018B00085FF0134E4B24470297BA142F5D82800A9
:1018C000FFF77CFF0023437070BD10B501734260C9
:1018D0008360FFF7E0FF10BDF0B5C64600B5050018
:1018E0000C1E03D1200080BCB846F0BDFFF766FF98
:1018F0004678002EF6D031002800FFF75FFF4778CA
:1019000000239846437021002800FFF757FF434605
:101910004370320021002800FFF79EFF04003900C9
:101920002800FFF7D9FF020021002800FFF794FFED
:101930000400D7E7F0B5C64600B504000D00170057
:10194000002927D0FFF73AFF4378002B28D183786E
:10195000002B2BD101782000FFF7BEFF0600804648
:10196000002F0AD0E17B002926D1A37B002B03D1D5
:10197000E37B002B25D1A573E5734346002B26D1CD
:1019800029002000FFF71AFF00234370300080BCBD
:10199000B846F0BD114B124A1248382100F010FB36
:1019A000114B0F4A0F483A2100F00AFB0F4B0C4A2B
:1019B0000C483B2100F004FB2000FFF7FFFE4570C0
:1019C000D3E70B4B064A0748422100F0F9FA3100F1
:1019D0002000FFF7F3FE00238370D1E738490010A1
:1019E000185000104049001088490010B0490010FC
:1019F000B847001070B504000A00457B2900FFF7C6
:101A000099FF6073280070BD70B506000C1E40D0B1
:101A1000437B8B4207D0FFF7D1FE05008178002978
:101A200006D1002036E00121FFF7E4FF012031E07C
:101A30003000FFF7C3FE0178A1420DD03000FFF760
:101A4000BDFE4178A1420AD00029F7D1124B134ABA
:101A500013486B3100F0B4FA6B78037001E06B78D7
:101A600043700023AB706B70012221003000FFF740
:101A700061FF0200717B814205D03000FFF7ECFE70
:101A80007073012006E0074B044A0548712100F0FD
:101A900097FA002070BDC0466C4500100050001041
:101AA00040490010D449001070B5046BE30701D41D
:101AB000200070BD02003032C0239B0113430A4A4C
:101AC0001A60456A836AAD01ED18AD02062000F088
:101AD000BDF9064901F05CFC0100280001F058FC4A
:101AE0000021FFF771FDE3E7010300004E0E000047
:101AF00070B504000E001500FFF7D6FF22002C324F
:101B0000E36A5E40354080235B0113431D60206320
:101B100070BD000070B505000C00062000F096F9BD
:101B2000C000210001F034FCC60908D00E4B9E42D3
:101B300016D87F230340013334005E0800E00124FF
:101B40006C62AE62002200212800FFF7D1FF062060
:101B500000F07CF98000A101891901F019FC70BD29
:101B60000026024CECE7C046FEFF0000FFFF00002D
:101B700010B505394901013AD2001143002B09D0B3
:101B800002220A43012B07D0002111436E22FFF7E6
:101B9000AFFF10BD0022F4E70421F6E7002909D0C9
:101BA0000A22064B9C46604443425841044B400085
:101BB000C252704780225200F3E7C0460080FCBF4B
:101BC0008008002070B505000C00062000F03EF9EA
:101BD000061E27D0164B9D4226D08022D203154BDD
:101BE0001A60154B1A60154B9B6811009943FAD186
:101BF00000212800FFF7D2FF21002800FFF78AFF0D
:101C000006000023012208212800FFF7B1FF2A0067
:101C10002C3280239B01134310221A60084B2B6344
:101C20000323AB64300070BD80221204D7E7C046A6
:101C30000080034000E0004000F0004000C0004091
:101C400001030000F8B5DE4657464E464546E0B56E
:101C500006000F0015000A9A934250D31A0E9246BE
:101C60001B0298460A9A00234046514601F0CEFBDB
:101C700081467400A419A4002F4B9C4664446368F9
:101C8000834200D26060331FDBB29B46012B3CD9FC
:101C9000C0239B012343802212011A60274BB2000C
:101CA000D158002907D0586901F072FB0130430078
:101CB0001B18033BFDD26D0123685D40E0222A40E2
:101CC00080235B0123431A605A46012A28D98023C6
:101CD0009B012343802212011A604B4663604A46EF
:101CE00000234046514601F091FB144BB600985139
:101CF0000120F0BCBB46B246A946A046F8BD104B39
:101D0000104A1148332100F05BF9012FC0D1C023E4
:101D10009B01234303221A60A368DB07FCD5CAE7B3
:101D20002168794003220A401A60A3680125BD405A
:101D30001D42FAD0CBE7C04600800040C805002015
:101D4000F44900104C500010084A001030B583B020
:101D50000C2000F011F9FEF7C7FB00280DD000237E
:101D600004E02E4A99002E4888500133092BF8D9F7
:101D70002A4B2C4A5A6203B030BD2B4B00229A6783
:101D800000F002F9294B01221A60274B5B6C012BF2
:101D9000FBD1274B03221A60234B9B6B012BFBD1FA
:101DA000013300930433234A0121234800F054F8FF
:101DB00005230093214A0121214800F04DF8214BD1
:101DC0000093002202210420FFF73CFF1E4D0095E6
:101DD0002B00002201210520FFF734FF104C009456
:101DE0002300002200210720FFF72CFF009423008E
:101DF000002200210820FFF725FF0A4B0093230053
:101E0000002200210920FFF71DFF00952B00002272
:101E100000210620FFF716FFADE7C046C8050020E9
:101E2000006CDC021BB70000008000403CB00040AA
:101E300030B00040002F685900800240008C864777
:101E400000C00240001BB70040597307014B8000DF
:101E5000C0587047C8050020F0B5C64600B504005C
:101E60000E0017001D00374801F092FA8046364BED
:101E7000FA18364B9A4239D80100380001F088FA36
:101E80000200103A98235B009A4235D86B1E062B4D
:101E900038D8069B013B062B34D83F09474537D33A
:101EA0002D04069B1B031D432368002B36DB284BA8
:101EB0009C4244D080235B01264A1360264A13606B
:101EC000264A926819009143FAD12660A060221D2B
:101ED000C0239B01134321221A602268002AFCDAE6
:101EE000E56008221A6080BCB846F0BD1C4B1D4A54
:101EF0001D48112100F064F81C4B1A4A1A48192198
:101F000000F05EF81A4B174A17481C2100F058F8E9
:101F1000184B144A1448232100F052F822683F233A
:101F20001340B342C3D1A3681B051B0D8342BED12E
:101F3000E368EE22D2021340AB42B8D1D3E780234C
:101F40009B01B9E7001BB70080E84BD380F8A932AA
:101F500000C0024000E0004000F0004000C000402F
:101F60005C4A00105C500010BC4A0010084B001086
:101F7000244B0010704B001080239B000343014A48
:101F8000D362704700800540074BAA2212011A60F5
:101F90002132FF32DA60054B054A1A60024B5B685A
:101FA000002BFBDA7047C046004002400060024050
:101FB00000B0FA0000BEFDE710B5FFF7FBFF000020
:101FC00030B583B00D001900002A0BD0074B084C28
:101FD000019200932B000200200001F06DFF012010
:101FE000FFF7E8FF034B1A00F1E7C0468C4B0010E7
:101FF0009C4B0010984B001070B52B4B2B4A1A606D
:102000002B4B2C4A1A602C4B9A682A4B9343FAD1DB
:102010002A4C01E008CC9847294B9C42FAD3FFF7A1
:1020200095FE234B274A1A60234B9B68DB43DB0159
:10203000FAD1254B40229A675A671A67DA66234C11
:1020400009E0234B234A24488721FFF7B9FF2000EA
:10205000FEF7C2FD0834214B9C4209D22368002BB5
:10206000F5D0012BEDD12000FEF7C3FD0834F2E7D7
:102070001B4DA9681B4CC022200001F08DFDAC60F7
:10208000EFF30583002B00D000BEFEF767FAFEF7E2
:102090008DFDFFF7C3F8144C01E008CC9847134BB3
:1020A0009C42FAD370BDC04600E00040BFCDFBFEAD
:1020B00000F00040FE7F3C0000C00040F402002021
:1020C00004030020FFFFFF0100F00140EC020020AC
:1020D000CC4B001068500010EC4B0010F4020020B4
:1020E00000ED00E000000020040300200C030020AD
:1020F0000FB400B583B0084801F0AEFE049B002B7E
:1021000007D005A90191180001F0B6FE034801F0BF
:10211000A3FE0120FFF74EFF3C4C00104C4C00107A
:10212000704710B5002802D00B684968984710BD69
:102130000100002007E083001B185B00501C0860B2
:102140001078C01830380A681378303BDBB2092B9E
:10215000F1D97047F0B5DE4657464E464546E0B5E4
:1021600083B093461F000C9B9A460D9C0E9B99468C
:102170000F9B9B0703D0B8460F00060022E0019298
:10218000A34688464E46B9460700B44207D2551CBE
:102190004B4641462020B84701342A00F5E73D0070
:1021A0004F465C46019B9B46B1464646B8463700C3
:1021B0002E0007E0013C551C5346185D434639008C
:1021C000B0472A00002CF5D135003E0047460F9B52
:1021D0009B0707D4100003B0F0BCBB46B246A9462B
:1021E000A046F0BDB0464E46B9462F005D46531B93
:1021F000B342EFD2541C4B4641462020B847220040
:10220000F5E7F0B5CE46474680B585B0944698468A
:102210000C9D0D9C0EAB1B789946109A119B129E3B
:10222000B7071CD4002B0CD0F7070AD54F46002F58
:1022300002D10C37374204D0013B02E030272F5542
:102240000134944201D21F2CF8D9F70707D59C42DC
:1022500005D21F2C03D830272F550134F5E7F70698
:1022600012D5770505D4002C03D0944221D09C428E
:102270001FD00F9A102A32D00F9A022A37D01F2C63
:102280000AD830222A5501341F2C05D84A46002A84
:1022900033D02D222A5501340396029301940095E0
:1022A00043466246FFF756FF05B0C0BCB946B0468C
:1022B000F0BD621E012C10D00F9F102F0BD0140008
:1022C0000F9A102AD8D1B206D6D51F2CD4D85822AE
:1022D0002A550134D3E7023CCBE71400C9E7B20624
:1022E000EED41F2CECD878222A550134C7E71F2CD6
:1022F000D2D860322A550134C1E7720703D52B22A8
:102300002A550134C8E73207C6D520222A550134A0
:10231000C2E7F0B5DE4657464E464546E0B593B0B7
:1023200081468A46089209931CAB10CB1B789B46CA
:102330001E9D219B9846002C03D1102342469A43B0
:1023400090468023DB0046461E4042461A4212D089
:10235000002C22D000260EE03033D9B2771C0AAB15
:1023600099552900200001F013F8AC4216D31F2F15
:1023700014D83E0004002900200001F009F8CBB277
:10238000092BE9D94246920605D54121C918C9B29F
:102390000A39C9B2E2E76121F8E72700434606930C
:1023A000209B05931F9B049303955B460293019723
:1023B0000AAB0093099B089A51464846FFF721FF54
:1023C00013B0F0BCBB46B246A946A046F0BDF0B57E
:1023D000DE4657464E464546E0B597B00A900B910B
:1023E0000C929A46209B9946219F22AA13789B46DD
:1023F000249B0993259C289B98464A463A4302D140
:102400001032934398468022D200454615404346F9
:1024100013420AD04A463A4341D000252E00534683
:102420000D934D46099B9A461BE02E0053460D9393
:102430004D46099B9A4614E03033DAB2731C994634
:102440000EAB9A55524623002800390000F0DEFFFB
:10245000BC4226D819D04B461F2B1CD84E4605002F
:102460000F00524623002800390000F0CFFFD3B2FE
:10247000092BE1D94246920605D54122D218D2B2A3
:102480000A3AD2B2DAE76122F8E7AA45E3D94E4622
:102490000D9B9A4608E04E460D9B9A4604E00026A6
:1024A00002E04E460D9B9A4643460693279B0593B2
:1024B000269B0493099B03935B46029301960EAB04
:1024C000009353460C9A0B990A98FFF79AFE17B09F
:1024D000F0BCBB46B246A946A046F0BDF0B5DE460C
:1024E00057464E464546E0B591B0804689460C9227
:1024F0009A461A9C1B9D22002B002000290001F007
:1025000000FA002800D0ECE001225242D44B200017
:10251000290001F0F1F9002800D0E2E00122524246
:10252000D04B2000290001F0D1F9002800D0D8E0DC
:10253000002200232000290001F0C8F9002800D063
:10254000E4E0069407958023DB001E9A1A400D9262
:102550001E9A1A4201D106231C930698079902007D
:102560000B000892099303000A00024300D1D9E04E
:10257000080D4005400DBC4EB44660440A03120BE2
:102580001E00BA4B13431F0001F0CEF9B84AB94BF5
:1025900001F05DF9B84AB94B01F03AF90890099198
:1025A0000022B74B3000390001F02DF9B54AB64B87
:1025B00001F04DF902000B000898099901F028F983
:1025C00001F0CAF9834601F0AFF906000F00AF4AE7
:1025D000AF4B01F03CF90022AE4B01F019F901F0CC
:1025E000BBF90890AC4AAD4B3000390001F02FF92F
:1025F00006000F00089801F097F9A94AA94B01F0CD
:1026000026F902000B003000390001F0FCF806004A
:102610000F0002000B0001F01AF90A900B91089BC1
:10262000A14A9446634400210022089109921B05A7
:1026300009930023089332003B003000390001F079
:10264000E7F80E900F9132003B0000208021C90571
:1026500001F0D9F806000F000022944B0A980B995C
:1026600001F0DBF80022924B01F0D2F802000B00DF
:102670000A980B9901F0D1F800228E4B01F0C8F8AE
:1026800002000B000A980B9901F0C7F802000B003A
:102690003000390001F0BCF802000B000E980F99D1
:1026A00001F0BBF80022714B01F0B2F8089A099BC7
:1026B00001F0CDF806000F0008960997069A079BCF
:1026C00001F01AF900282FD001235B429C46E34415
:1026D0000022774B3000390001F09FF808900991F3
:1026E00022E01E9B04931D9B03931C9B029300946A
:1026F000019553460C9A4946404600F0FFF811B048
:10270000F0BCBB46B246A946A046F0BD002100225F
:1027100006910792069480231B069C46AC446346B0
:10272000079310E700239B465B466333C62B20D8F4
:1027300004261E9B1B0528D5089A099B19001143E6
:102740000FD05D4A5D4B0698079901F0CDF800283F
:102750007AD000225A4B0698079901F0B7F8002862
:1027600072D01C9B5B4506DD5A469B1A013B1C93AD
:1027700003E00526DDE700231C938023DB001E9A7F
:102780001A431E92002600239B461D9B9E4265D243
:102790009F1B02231E9A1A400A921E9A134202D0CD
:1027A000002E00D000275B46002B07D0089A099B1B
:1027B0000698079901F031F806900791002200234E
:1027C0002000290001F082F8002800D07CE03D4B79
:1027D0001E9A1340049303971C9B0293069B079C2D
:1027E0000093019453460C9A4946404600F086F8FF
:1027F000002E00D183E71E9B9B0671D54525441C06
:102800005346020049462800C0475A46D317D218FB
:102810005A4005230593013E0496002303930A338F
:1028200002935B46DB0F0193009253462200494618
:102830004046FFF76EFD0A9B002B00D15FE70200C8
:1028400047460C9E1D9D53E01C9B002B9DD00D9B6D
:10285000002B9AD01C9B013B1C9396E7002798E71E
:10286000FFFFEF7FFFFFEFFF01FCFFFF0000F03FE6
:10287000FB799F501344D33FB3C8608B288AC63F6F
:102880000000F83F61436F63A787D23F71A37909C6
:102890004F930A400000E03F1655B5BBB16B0240B4
:1028A000EF39FAFE422EE63FFF03000000002C4005
:1028B00000002440000018402D431CEBE2361A3F74
:1028C00080842E41FFF7FFFF069C079D2200290010
:1028D00080200006844661440B000692079376E749
:1028E00065258CE7541C534649462020B8472200F2
:1028F000931BAB42F6D3100001E7C046F0B5DE46AD
:1029000057464E464546E0B595B00690079193462A
:102910009946209F1E9A1F9B1000190000F0F1FF9E
:10292000002831D101225242BF4B1E981F9900F05E
:10293000CDFF002837D101225242BC4B1E981F996F
:1029400000F0DAFF00283DD10022B94B1E981F99F4
:1029500000F0D2FF002850D10022B64B1E981F99DC
:1029600000F0B4FF002848D1002200231E981F99D0
:1029700000F0ACFF002850D100239846229B5B0555
:1029800000D4B6E0002458E0229B0393219B0293DD
:1029900003230193A84B00934B465A460799069888
:1029A000FFF7D8FB0EE1229B0393219B02930423A4
:1029B0000193A24B00934B465A4607990698FFF79E
:1029C000C9FBFFE00423229A1A4022990B4210D03F
:1029D0009B4B002A0FD00422229903912199029146
:1029E000019200934B465A4607990698FFF7B2FBAF
:1029F000E8E0944BEDE70322EEE7229B0493219B52
:102A0000039302971E9B1F9C009301944B465A46CA
:102A100007990698FFF762FDD4E01E9A1F9B0020DD
:102A2000002100F0F0FE1E901F9101239846A5E7BB
:102A30000CAB30221A55013F01341F2C01D8092F4D
:102A4000F6D81E981F9900F087FF050000F06CFF74
:102A500002000B001E981F9900F0D5FE7A4BFA0079
:102A60009B181A685B680A920B9300F0F0FE0890BE
:102A7000099100F095FF060000F052FF02000B00E4
:102A80000898099900F0BFFE0890099100226F4B49
:102A900000F032FF00282ED00136300000F040FF59
:102AA00002000B000A980B9900F016FF002801D0D5
:102AB00001350026002F2CD1280000F035FF020040
:102AC0000B001E981F9900F09EFE06000F000022CA
:102AD0005E4B00F0FBFE002846D100225B4B30002D
:102AE000390000F009FF00283ED1EB073CD5013545
:102AF0003AE0062746E70022544B0898099900F06F
:102B0000E5FE0028D6D1002E01D0F307D2D501363C
:102B1000D0E7AA461F2C11D8013F0A21300000F04F
:102B200037FC651C30310CAB19550A21300000F020
:102B30002FFC092E0ED906002C00EBE755461F2C62
:102B40000CD87B1E002F09D00CAA302111551F0074
:102B50000134F4E72B0055461C00F0E71F2C03D886
:102B60000CAB2E221A5501341F2C10D80A21280034
:102B700000F0E6FB661C30310CAB19550A21280029
:102B800000F0DEFB051E01D03400EDE73400032326
:102B9000229A1340012B1CD01F2C06D84346002B31
:102BA00032D00CAB2D221A550134229B0393219B6A
:102BB000029301940CAB00934B465A460799069832
:102BC000FFF7C8FA15B0F0BCBB46B246A946A0460E
:102BD000F0BD219B002B13D04346002B02D10C33B8
:102BE00013420FD0219B013B2193190003E00CAB52
:102BF00030221A5501348C42CED21F2CF7D9CBE7A4
:102C00002199F8E72199F6E7229B5B0704D50CABE5
:102C10002B221A550134C8E7229B1B07C5D50CABE4
:102C200020221A550134C0E7FFFFEFFFFFFFEF7FBF
:102C300065CDCD4165CDCDC15C4C0010604C001020
:102C4000504C0010584C0010185200100000E03F8B
:102C5000F0B5DE4657464E464546E0B593B082464F
:102C6000884693461193002900D10DE3002556466E
:102C7000119B1878002800D109E3252809D06C1C85
:102C80005B462A004146B047119B01331193250052
:102C9000EEE701331193002720E001231F430132A7
:102CA0001192012418E002231F43013211920124E2
:102CB00012E004231F430132119201240CE0082387
:102CC0001F4301321192012406E010231F430132F9
:102CD0001192012400E00024002C09D0119A1378ED
:102CE000203BD9B21029F6D88B00C849CB589F4653
:102CF000119B1A781300303BDBB2092B10D92A2A1A
:102D000013D00B94119B1A782E2A1ED0119A137887
:102D1000683BD9B2122959D88B00BD49CB589F4680
:102D200011A8FFF705FA0B90ECE71C9B1A1D1C92EB
:102D30001B68002B04DB0B93119B01331193E1E71C
:102D4000022217435B420B93F6E78022D20017431F
:102D50005A1C11925A781300303BDBB2092B0BD965
:102D60002A2AD3D11C9B1A1D1C921C68002C08DB3C
:102D7000119B01331193C9E711A8FFF7D9F904009A
:102D8000C4E70024F4E780235B003B43511C11910E
:102D900051786C2901D01F0018E0C0239B001F430D
:102DA0000232119212E080233B43511C1191517861
:102DB000682901D01F0009E0C0231F43023211928D
:102DC00004E080235B001F4301321192119B1878AD
:102DD000672818D8252800D24CE20300253BDAB238
:102DE000422A00D946E293008A4AD3589F4680235C
:102DF0009B001F4301321192E8E780235B001F43D1
:102E000001321192E2E7782800D933E2692800D232
:102E100030E20200693AD2B2012393407E4A134263
:102E200011D11A0600D500E25B0500D422E21C9BFA
:102E30001A1D1C921B689A46002C00D0B2E1012298
:102E4000524253468EE16F280ED006D858283DD006
:102E5000622804D102239C4608E0782839D0102348
:102E60009F43063B9C4601E008239C46582833D0EC
:102E7000692803D0642801D00C2297437A0501D534
:102E80000122974369282AD0642828D0BA0500D5A2
:102E90009FE0FA0500D5C1E07A0600D4D3E01C9A81
:102EA000111D1C911168FF220A4005970B9B04938A
:102EB0000394634602930023019300925B462A0029
:102EC00041463000FFF725FA050027E010239C4615
:102ED000CCE710239C46C9E720221743C8E7BA0570
:102EE00020D4FA0550D47A0666D51C9A111D1C917F
:102EF0001168FF220A40D0171118414005970B9B1B
:102F00000493039463460293D20F019200915B46AF
:102F10002A0041463000FFF7FCF90500119B013300
:102F20001193A5E61C9A073207218A431100083144
:102F30001C91116853689946DB170C930D930C9AFA
:102F40000D9B100048400E904A4653400F930E9838
:102F50000F990C9A0D9B801A99410E900F9108972A
:102F60000B9B0793069463460493002305934B46FB
:102F7000DA0F0292009001915B462A004146300030
:102F8000FFF725FA0500C9E71C9A111D1C9112686C
:102F9000D0171118414005970B9B04930394634687
:102FA0000293D20F019200915B462A004146300005
:102FB000FFF7AFF90500B1E73A0605D51C9A111DD8
:102FC0001C910023D25E96E71C9A111D1C91126879
:102FD00091E71C9A073207218A43110008311C919E
:102FE00008970B9B0793069463460493002305936D
:102FF000029353681268009201935B462A0041468F
:103000003000FFF7E4F9050088E7C046785000106B
:10301000BC50001008510010419000001C9A111D76
:103020001C9105970B9B0493039463460293002322
:103030000193136800935B462A0041463000FFF776
:1030400068F905006AE73A0606D51C9A111D1C911D
:1030500012681204120C28E71C9A111D1C911268A8
:1030600023E7462819D01C9B0733072293431A00F5
:1030700008321C9204970B9A039202941A685B68B8
:10308000009201935B462A0041463000FFF736FC70
:103090000500119B01331193EAE520231F43E2E76A
:1030A000672801D0472802D180231B011F434528F0
:1030B00001D0472801D120231F431C9B073307223F
:1030C00093431A0008321C9204970B9A03920294BD
:1030D0001A685B68009201935B462A004146300003
:1030E000FFF7FCF90500119B01331193C0E50223A2
:1030F0001A003A4091463B421DD001241C9B1A1DE8
:103100001C926F1C18785B462A004146B0474B461C
:10311000002B14D1119B013311933D00A8E5571CDE
:103120005B4641462020B04723003A005C1C9D428C
:10313000F5D81500E2E701232A000B9DF6E73A00D7
:10314000B1460B9E06E0571C5B4641462020C8470F
:103150002C003A00651CA642F5D817004E46D9E768
:1031600001330A001978002902D0511E002AF7D134
:1031700052469B1A8022D2003900114089461742DC
:1031800002D0A34200D9230002221100394010913D
:103190003A4209D02A00250057469A4633004E4647
:1031A000994621E022004CE62A004546A04606E06A
:1031B000541C5B4629002020B0473B0022005F1CC6
:1031C0000B999942F4D84446A8463B00250057463F
:1031D0009A4633004E46994606E01D000137541CBE
:1031E0005B464146C84722003878002804D0002EAC
:1031F000F4D06B1E002DF0D1150053464E46109AA8
:10320000002A03D1119B0133119331E50B9F2A0052
:1032100006E0551C5B4641462020B04723002A00AB
:103220005C1C9F42F5D81500ECE721233B431C9A18
:10323000111D1C911268059308230493039408330D
:1032400002930023019300925B462A00414630001E
:10325000FFF75FF80500119B0133119308E56C1C23
:103260005B462A0041462520B047119B013311934C
:103270002500FDE46C1C5B462A004146B047119BCB
:10328000013311932500F3E40A4B9A46EEE4B2466B
:103290005D450DD35B465A1E5B4641460020D04734
:1032A000280013B0F0BCBB46B246A946A046F0BD0C
:1032B0002A00F1E72121001000B585B002900391AA
:1032C00001210448009313004A4202A9FFF7C0FC01
:1032D00005B000BD2321001001480421014B18470F
:1032E000B00200200933001010B5010018231B881C
:1032F00014221088984710BD10B5010018231B88B0
:1033000016221088984710BDF0B5C64600B50700D4
:103310000E0000250123984600E00135B5420AD28F
:10332000AC003C192068FFF7DFFF20600028F4D1D3
:1033300000239846F1E7404680BCB846F0BD000047
:10334000124A936F9B0815D29066D166002905D06A
:10335000FFE7FFE7FFE7516F106F704704B580216B
:103360000906C2175140002800D0C84300F0E4FF0E
:10337000002104BDF0B5146E556E576F166FFFF740
:10338000E3FF1466556657671667F0BD000000D06E
:10339000114A936F9B0813D210665166002905D01D
:1033A000FFE7FFE7FFE7516F106F704704B5002894
:1033B00001D00020C04300F0BFFF002104BDC04683
:1033C000F0B5146E556E576F166FFFF7E5FF146674
:1033D000556657671667F0BD000000D094464A4A0C
:1033E000926F9208624601D228E0C046F0B5464E80
:1033F000346E756E776F366F00F020F89446424A4F
:1034000014665566576716676246F0BD94463E4A95
:10341000926F9208624601D254E0C046F0B53A4E2F
:10342000346E756E776F366F00F04CF89446364AFE
:1034300014665566576716676246F0BD002B24DB9D
:1034400011D000293EDA00B5C943404200D1013114
:1034500000F038F8C943404200D10131DB43524209
:1034600000D1013300BD002AEBD1002801D1002991
:1034700005D00020C90FC90701D1C043410800B5DC
:1034800000F052FF0022002300BD00B500290ADB36
:10349000DB43524200D1013300F014F8C9434042EB
:1034A00000D1013100BDC943404200D10131DB43AD
:1034B000524200D1013300F005F8DB43524200D103
:1034C000013300BD002923D1002B18D1002A0CD0D4
:1034D000BC460D4F38667A6600210023FFE7FFE700
:1034E000FFE77A6F386F67467047002801D00748BA
:1034F000010000B500F018FF0022002300BD02000B
:103500000B00002000217047000000D0FFFFFFFFEC
:10351000002B00D0BFE0130C28D1002AE7D080B4E4
:10352000114F39667A66FFE7FFE730B4040C7B6F12
:10353000396F1B0423433B667A66FFE7FFE7FFE72B
:10354000C04684B27B6F3D6F1B0423433B667A66A3
:10355000FFE7FFE7C04600232C042D0C7A6F386F7D
:1035600000196941B0BC7047000000D0F0B5944626
:103570000025140E01D112020835140F01D11201D9
:103580000435940F01D192000235D40F01D15200BD
:103590000135D40B0134254F7C66254C3C660E0C5E
:1035A00093B2FFE7FFE7FFE73C6F6643360C770314
:1035B000BE467343DF0B5B04C01AB941130C73435F
:1035C000DB18C91ACE086643360CB64493B273436F
:1035D0001F0F1B01C01AB941130C73431F0B1B05AE
:1035E000C01AB941860D8F023E436643360C092D41
:1035F00024DB520A7243801A7703460A6643360C6C
:1036000016235B1BDE40DF40BF1964466643821B06
:103610007046043506330100D940A840C01900D3D4
:103620000131A24206D20023F0BD0000000000D00C
:10363000FFFFFFFF121B0130F3D3F1E709277F1BC8
:10364000FE406446A2B27243801A00D20139220CB5
:103650007243130C1204821A99410B007046043510
:1036600013370100F940A840801900D30131002B25
:1036700002D1A2420AD2F0BD013000D30131121BA7
:10368000FAD2013BF8D1A24200D2F0BD013000D302
:103690000131121BF7E7F0B51C0C00D080E00CB430
:1036A00000251C0A04D11B02160E334312020835F2
:1036B0001C0B04D11B01160F3343120104359C0B64
:1036C00004D19B00960F334392000235DC0B02D1EC
:1036D00092185B4101351C00971864410134464F34
:1036E0007C66464C3C660E0CFFE7FFE7FFE7C046F2
:1036F0003C6F6643360C7703BE4697B27743C01BD8
:1037000000D20139C01B00D201399FB27743C91BD7
:10371000C91B170C77437E04FF0B801BB941CE08F1
:103720006643360C0C2D33DBB644120B1F053A43AF
:103730001B0B97B27743C01B00D201399FB277436E
:10374000C91B170C77433E043F0C801BB941860D03
:103750008F023E43664329277F1BFE400C3D774680
:10376000AF40BF1930BCA2B2ABB272437343801AF0
:103770009941220C7243130C1204801A99410200E1
:103780000B000137001BA941F9D2781E0021F0BDC2
:103790000C277F1BFE4077467F0BAF40FF19E0E709
:1037A00000245D1C07D0144F7D663966FFE7FFE7F4
:1037B000FFE7FFE73C6F95B29EB265436643401B4F
:1037C000B141150C1E0C6543664336042F0C3E4375
:1037D0002D04401BB141994204D202000B0020008D
:1037E0000021F0BD01D19042F7D3801A99410134F4
:1037F0009942F2D3F6E70000000000D0FFFFFFFF80
:1038000048404140484018B4134B5B68019308BDE1
:1038100018B4114B1B68019308BD94460F4A926F70
:10382000920805D2624618B40B4BDB68019308BDC1
:103830000A4AF0B5146E556E576F166F6246FFF761
:10384000F2FF064A1466556657671667F0BD18B44E
:10385000014B9B68019308BD68060020000000D062
:10386000FFB550404240504059404B40594000E065
:10387000FFB5154F4C00640D03D0BC4204D10C03BE
:1038800014D80020090D09055C00640D03D0BC426A
:1038900004D11C030AD800221B0D1B0501264B4036
:1038A00009D44B4003D58B4200D18242FFBD9942DF
:1038B000FCD19042FFBD0B43DB1803431343F5D00B
:1038C000C9434918FFBD0000FF07000000B5FFF71E
:1038D000CFFF804100BDC04600B5FFF7C9FF01D949
:1038E000002000BD012000BD00B5FFF7B9FF01D9E0
:1038F000002000BD012000BD00B5FFF7B1FF8041F1
:1039000000BD012040054A00121804D85A001218C0
:1039100001D8002070470120704700207047000048
:103920000021002805D17047C1174840401AFAD03D
:10393000C90713B5064B1B6898470CBC441CA24032
:103940001005120B0349091B09051943114310BD4A
:10395000680700201F04000010B54C00620D802392
:10396000D218DB00D21A5B057E2A10DD9E3A13DAEC
:10397000CC170903490819435242D140640001346D
:103980001532202A05DAD0400843604310BD0020DC
:1039900010BD0846604310BDC80FC018013810BDE7
:1039A00018B4024B5B6A019308BD00006806002052
:1039B00010B50148FEF79CFB684C001070B513234E
:1039C0001C78012C12D0012C12DC214B214A93646B
:1039D0002148FFF789FC214B186070BD20491D4A22
:1039E0009800815001331F2BF8D9ECE70023FAE748
:1039F0001C48FFF781FC05001B48FFF77DFC0238DF
:103A000003789B007F2B09DD12488022290000F0FB
:103A1000C3F8022C08D0022CDADCD6E7134B144A88
:103A200014483221FEF7CCFA134B1A88B5231B0237
:103A30009A4209D1114B1A88114B9A4204D1114B69
:103A40001A88114B9A42E6D00020FEF751FBC0467F
:103A50008D3A0010680600204C33000068070020F3
:103A6000B13900105344000053460000804C001050
:103A700068520010D44C001054380000D8380000B0
:103A8000494600009C3800005946000007B56046D2
:103A9000002800D100BE01880A0A0230DF2AFAD1CC
:103AA000C9B2820804D3028840880004104300E0B1
:103AB0000068024A5050039007BD000068060020CD
:103AC00051434343C9188C46110C83B24B4310B485
:103AD000040C614392B280B2504362431C041B0C3D
:103AE000001910BC59411304120CC0185141614413
:103AF0007047000010B50148FEF7FAFA984B001025
:103B000070B513231E781848FFF7F6FB0500012E49
:103B100011D0012E09DDAB1E1B789B007F2B1DDD14
:103B200012488022290000F037F81148FFF7DCFB2B
:103B3000104B186070BD0D485422290000F02CF87D
:103B4000002300E001331F2BE3D8084A9C00A25851
:103B5000002AF7D10849054AA150F3E7074B084A64
:103B600008484221FEF72CFA534600006C0700205B
:103B70004C33000068070020F53A00102C4D00106F
:103B80007C520010604D001001480421014B184781
:103B9000C002002009330010014B5B681847000089
:103BA000C002002010B50300080011001B689847F0
:103BB00010BD0000F8B507000D001600437D002B76
:103BC00002D0002400200CE0036811002800984770
:103BD0002DE03B7D10E03B68154802219847601CB2
:103BE0000134B44214DA002CF3DD2B19013B1B78AD
:103BF0000D3B5A425341DBB22A5D0A2AF0D1002B19
:103C0000EED1A042E7DA3B68211A28189847E2E78C
:103C1000B04203DA3B68311A28189847002E06DDB7
:103C2000AD19013D2B780D3B5A4253413B75F8BD10
:103C3000B452001070B505000368002B16D00C4B71
:103C40001C6805E0290004C92000FFF7B3FF2469C0
:103C5000002C09D02368002BF9D0064B1B68002BE1
:103C6000F0D0A342F3D1EDE700232B6070BDC04636
:103C7000300600203406002070B505000C000B68EB
:103C8000802B05D023685A1C2260E418257170BD72
:103C90000800FFF7CFFFF5E710B5002B02DB02604D
:103CA000436010BD024B034A03483F21FEF788F9E9
:103CB0007C460010B85200109846001010B582B033
:103CC0000400FDF761FC02000B006846FFF7E4FF0B
:103CD000009A019B22606360200002B010BD0000CA
:103CE00070B582B0060014001D00FA229200002375
:103CF00006980021FFF7E4FE02000B0012196B4149
:103D0000002B09DB6846FFF7C7FF009A019B326072
:103D10007360300002B070BD01225242004BF1E7E7
:103D2000FFFFFF7F30B585B004000D0002A8FFF74C
:103D3000C5FF029A039B00952000FFF7D1FF2000EA
:103D400005B030BD00B583B0FA2189006846FFF7A1
:103D5000E9FF009A019B024800F0F6FA03B000BDAB
:103D6000EC02002010B5024800F0D6FA10BDC046A3
:103D7000EC020020F0B5CE46474680B583B0060081
:103D80000D0090461C00FFF7DDFF81466B1C05D03F
:103D9000002C08D0194F1A4B1C6807E0300000F0C7
:103DA0002BFA0500F4E7174FF5E72469002C17D02C
:103DB0002368002BF9D0144B1B68002B01D0A342C1
:103DC000F3D12A0031002000B8474346002BECD045
:103DD0006B46D91D0A230B7001222000B847E4E787
:103DE0004B46002B07D16B1E9D41E8B203B0C0BC0F
:103DF000B946B046F0BDFFF7B5FFF4E7A53B0010AC
:103E000030060020B53B001034060020094A01E0CE
:103E100010331A001368002B08D08342F8D1002910
:103E200007D1036913600023036102E0002900D079
:103E3000106070473006002010B5064B1C6801E08A
:103E400098472469002C03D06368002BF8D1F8E769
:103E500010BDC0463006002070B5050000F0CCF95A
:103E600004000023012201002800FFF783FFFFF771
:103E7000E3FF200070BD000070B5A2B004000E008A
:103E8000FFF760FF0500002301930A48330022007A
:103E900001A9FFF711FA040001A8FFF7CBFEFFF715
:103EA000CBFF002D02D1200022B070BDFFF75AFFDA
:103EB000F9E7C046793C00100FB400B583B004A9FF
:103EC00001C90191FFF7D8FF03B008BC04B018473F
:103ED00010B500F0FFF8012010BD000010B582B051
:103EE0000C00144BC3185A425341134A5B009B5EAB
:103EF0008B4204D06B46DA1D1470002115E06B462E
:103F0000DA1D0D23137000210029F3D183699B066C
:103F1000FCD41378036001310132F5E783699B0615
:103F2000FCD413780360013101320029F6D002B0CD
:103F300010BDC0460080FCBF8008002082B0002277
:103F40006B46D91D06E08369DB06FCD403680B7061
:103F500001320131002AF6D06B46D87902B07047A1
:103F600070B506000D00002405E0315D034B1868B4
:103F7000FFF7B4FF0134AC42F7DB70BD84080020CA
:103F8000F8B506000D00002705E07C1CF719FFF7C7
:103F9000D5FF38702700AF4204DA0E4A10688269F4
:103FA000D206F2D50C4A1268002A0CD0094A1268CF
:103FB0005021916310003430526B18391140802227
:103FC000520102431160002F01D03800F8BD033FB9
:103FD000FBE7C04684080020C005002010B5064B52
:103FE0001B68002B06D0054A126800219163044A21
:103FF0001068984710BDC046C00500208408002006
:10400000C405002070B505000E001C4B1A681C4B3F
:10401000D31859424B4114331C0000281ED0194BB1
:104020001B68002B04D0174B1D60174B1E6070BD22
:1040300016492000FCF74CFB01212000FCF738FB5F
:104040000E4B1B6850229A63190034315B6B183A8F
:104050001A4080235B010B431A60E4E7094B1B689D
:10406000002BE0D00023936300212000FCF720FB0D
:1040700006492000FCF75EFCD5E7C0468408002016
:104080000080FCBFC0050020C4050020DD3F0010FB
:1040900070B50D001C000D4B1860002A0BDA002CC7
:1040A0000EDA0A4B18682900FDF78CFD084801213B
:1040B000FFF7ACFE70BD02211000FCF721F9EEE71E
:1040C00002212000FCF71CF9EBE7C0468408002021
:1040D000D002002010B5064B1B78064B1B78E1215F
:1040E0000123002249020448FFF7D2FF10BDC04659
:1040F00004530010005300100040034010B500F0BE
:1041000049F810BD10B5034B01220821FCF784F9D2
:1041100010BDC046FD40001010B5040000F01CF8B2
:10412000601C00F007F86078FFF7ECFFFFF7D0FEA7
:1041300010BDFEE710B504000078FCF7C9F922783D
:1041400001239340D022120693622078002201219D
:10415000FCF7EEF810BD000010B504000078FCF785
:10416000B7F9227801239340D022120653622278B5
:10417000014B1A7010BDC0468808002001238340FF
:10418000D02212065361704701238340D0221206C9
:104190009361704710B5074B1878D0231B065B68F6
:1041A000C340DB0702D5FFF7EFFF10BDFFF7E6FFC7
:1041B000FBE7C0468808002010B50100002300225C
:1041C000002000F047F810BD70B5074C074D641B88
:1041D000A41005D0013CA300EB589847002CF9D15E
:1041E00000F098F870BDC0460C0300200C030020BE
:1041F0007047C0467047C04610B583070AD0030019
:10420000032102E001330B4205D01A78002AF9D1CC
:10421000181A10BD030019680C4A0D4C8A188A43FD
:1042200022420FD15968094A04338A188A4322422C
:1042300008D15968054A04338A188A432242F1D0CA
:1042400000E001331A78002AFBD1E1E7FFFEFEFE11
:1042500080808080F0B5D6464F4646469846244B2F
:10426000C0B5060018689A460F009146FFF7C0FFD8
:10427000204B1D68002D32D053466C6818681F2CE7
:1042800030DC002E0CD1631C0234A4006B6067513B
:10429000FFF7B0FF0020E0BCBA46B146A846F0BD2B
:1042A00049468822A300EB189950C42149008C4646
:1042B000AC446146873AA240096891461143624680
:1042C00011608421424649005A50022EDBD1290058
:1042D0004A468D31FF310B6813430B60D3E7064D1F
:1042E0001D60C9E7FFF786FF01204042D3E7C046C3
:1042F000E80200201004002014040020034B10B535
:10430000002B02D00248FFF757FF10BD000000004D
:10431000C9410010F8B5C04601B40248844601BC4A
:10432000604700BFC901002001B40248844601BCB7
:10433000604700BF1502002001B40248844601BC5A
:10434000604700BF1502002001B40248844601BC4A
:08435000604700BF9501002049
:104358000D06000030783163203D3D20282A696E23
:104368007374293E3E313175000000002F686F6D6F
:10437800652F6167722F456D626564646564446585
:104388007369676E2F5250323034302F7069636F03
:104398002D73646B2F7372632F7270325F636F6D4E
:1043A8006D6F6E2F68617264776172655F69727193
:1043B8002F6972712E63000064656C7461203E3D44
:1043C800202D323034382026262064656C74612014
:1043D8003C3D203230343620262620212864656C66
:1043E8007461202620312900212864656C746120BD
:1043F8003E3E20313175290063757272656E7420F6
:104408003D3D205F5F756E68616E646C65645F75C5
:104418007365725F697271207C7C20637572726546
:104428006E74203D3D2068616E646C65720000000A
:104438006972715F68616E6465725F636861696EF5
:104448005F667265655F736C6F745F686561642031
:104458003E3D203000000000767461626C655F6844
:10446800616E646C6572203D3D205F5F756E6861AA
:104478006E646C65645F757365725F697271000064
:10448800212828282875696E747074725F742976DB
:104498007461626C655F68616E646C657229202D59
:1044A80020282875696E747074725F742969727136
:1044B8005F68616E646C65725F636861696E5F7383
:1044C8006C6F747329202D2031292573697A656FE3
:1044D8006628737472756374206972715F68616E9F
:1044E800646C65725F636861696E5F736C6F742971
:1044F8002900000021657863657074696F6E207CFF
:104508007C20657863657074696F6E203D3D206E10
:10451800756D202B20565441424C455F46495253F5
:10452800545F49525100000066616C7365000000D9
:1045380069735F7368617265645F6972715F7261E4
:10454800775F68616E646C657228736C6F745F68FE
:10455800616E646C65722900657863657074696F53
:104568006E000000666F756E64000000746F746101
:104578006C0000002F686F6D652F6167722F456DA5
:1045880062656464656444657369676E2F5250326E
:104598003034302F7069636F2D73646B2F737263BF
:1045A8002F636F6D6D6F6E2F7069636F5F73796EB8
:1045B800632F6D757465782E630000006D74782D17
:1045C8003E636F72652E7370696E5F6C6F636B000C
:1045D8006C6F636B5F69735F6F776E65725F696439
:1045E8005F76616C6964286D74782D3E6F776E65AF
:1045F800722900006D74782D3E656E7465725F6374
:104608006F756E74000000006964202626206964B6
:10461800203C3D20706F6F6C2D3E686561702D3EAB
:104628006D61785F6E6F6465730000002F686F6D51
:10463800652F6167722F456D6265646465644465C2
:104648007369676E2F5250323034302F7069636F40
:104658002D73646B2F7372632F636F6D6D6F6E2F85
:104668007069636F5F74696D652F74696D652E631A
:104678000000000075735F73696E63655F626F6F3A
:1046880074203C3D20494E5436345F4D415800005B
:104698002F686F6D652F6167722F456D6265646461
:1046A800656444657369676E2F5250323034302F19
:1046B8007069636F2D73646B2F7372632F636F6DF3
:1046C8006D6F6E2F7069636F5F626173652F696EBE
:1046D800636C7564652F7069636F2F747970657387
:1046E8002E6800006964202626206964203C3D204D
:1046F800686561702D3E6D61785F6E6F64657300EB
:104708002F686F6D652F6167722F456D62656464F0
:10471800656444657369676E2F5250323034302FA8
:104728007069636F2D73646B2F7372632F636F6D82
:104738006D6F6E2F7069636F5F7574696C2F696E2A
:10474800636C7564652F7069636F2F7574696C2F5E
:1047580070686561702E6800706172656E745F695B
:10476800640000006368696C645F696400000000AD
:10477800706172656E745F696420213D20636869A9
:104788006C645F6964000000696400006964202645
:1047980026202170685F636F6E7461696E735F6E47
:1047A8006F646528686561702C20696429000000C1
:1047B80021686561702D3E667265655F7461696C1C
:1047C8005F6964002170685F636F6E7461696E73FE
:1047D8005F6E6F646528706F6F6C2D3E68656170E1
:1047E8002C2072657573655F6964290072656D6F49
:1047F8007665645F6964203D3D206E6578745F6905
:104808006400000063616C6C6261636B000000000F
:10481800706F6F6C2D3E616C61726D5F696E5F7059
:10482800726F6772657373203D3D206D616B655FC4
:104838007075626C69635F69642869645F68696739
:10484800682C206E6578745F696429006465666108
:10485800756C745F616C61726D5F706F6F6C5F69AE
:104868006E697469616C697A6564282900000000C2
:10487800616C61726D5F696420213D20706F6F6C9F
:104888002D3E616C61726D5F696E5F70726F6772E9
:1048980065737300726300004861726477617265C2
:1048A80020616C61726D20256420616C72656164A1
:1048B8007920636C61696D656400000074696D65D9
:1048C800725F68772D3E696E7473202620317520DB
:1048D8003C3C20616C61726D5F6E756D000000007C
:1048E8002F686F6D652F6167722F456D626564640F
:1048F800656444657369676E2F5250323034302FC7
:104908007069636F2D73646B2F7372632F727032CB
:104918005F636F6D6D6F6E2F68617264776172652A
:104928005F74696D65722F74696D65722E6300001E
:10493800726F6F745F6964002F686F6D652F6167B0
:10494800722F456D62656464656444657369676E5A
:104958002F5250323034302F7069636F2D73646B6F
:104968002F7372632F636F6D6D6F6E2F7069636F36
:104978005F7574696C2F70686561702E6300000044
:104988002170685F6765745F6E6F6465286865612C
:10499800702C20726F6F745F6964292D3E73696291
:1049A8006C696E67000000002170685F6765745F5E
:1049B8006E6F646528686561702C20726F6F745F14
:1049C8006964292D3E706172656E74006E65775F4B
:1049D8007375625F7472656520213D20686561703A
:1049E8002D3E726F6F745F69640000007372635FBD
:1049F80066726571203E3D20667265710000000098
:104A08002F686F6D652F6167722F456D62656464ED
:104A1800656444657369676E2F5250323034302FA5
:104A28007069636F2D73646B2F7372632F727032AA
:104A38005F636F6D6D6F6E2F686172647761726509
:104A48005F636C6F636B732F636C6F636B732E6341
:104A58000000000076636F5F66726571203E3D203E
:104A6800285049434F5F504C4C5F56434F5F4D4968
:104A78004E5F465245515F4B485A202A204B485AB0
:104A8800292026262076636F5F66726571203C3D7B
:104A980020285049434F5F504C4C5F56434F5F4D61
:104AA80041585F465245515F4B485A202A204B488F
:104AB8005A2900002F686F6D652F6167722F456D49
:104AC80062656464656444657369676E2F52503229
:104AD8003034302F7069636F2D73646B2F7372637A
:104AE8002F7270325F636F6D6D6F6E2F68617264C5
:104AF800776172655F706C6C2F706C6C2E63000050
:104B08006662646976203E3D20313620262620667E
:104B180062646976203C3D203332300028706F7320
:104B2800745F64697631203E3D203120262620704E
:104B38006F73745F64697631203C3D2037292026E5
:104B4800262028706F73745F64697632203E3D209A
:104B58003120262620706F73745F64697632203C9A
:104B68003D203729000000007265665F6672657136
:104B7800203C3D202876636F5F66726571202F2088
:104B8800313629002C2066756E6374696F6E3A2081
:104B980000000000617373657274696F6E202225CE
:104BA8007322206661696C65643A2066696C6520C9
:104BB800222573222C206C696E65202564257325B7
:104BC800730A000031203D3D202875696E747074A9
:104BD800725F74296C2D3E7370696E5F6C6F636BC6
:104BE800000000002F686F6D652F6167722F456D9B
:104BF80062656464656444657369676E2F525032F8
:104C08003034302F7069636F2D73646B2F73726348
:104C18002F7270325F636F6D6D6F6E2F7069636F87
:104C28005F72756E74696D652F72756E74696D65E6
:104C38002E6300000A2A2A2A2050414E4943202A7E
:104C48002A2A0A000A000000666E692B000000008C
:104C5800666E69006E616E00666E692D0000000068
:104C68006D697373696E6720646F75626C65206621
:104C7800756E6374696F6E002A282875696E7438BA
:104C88005F74202A29726F6D5F646174615F6C6F55
:104C98006F6B757028726F6D5F7461626C655F63AE
:104CA8006F6465282753272C2027462729292D326A
:104CB80029202A2034203E3D2053465F5441424C4F
:104CC800455F56325F53495A450000002F686F6DA3
:104CD800652F6167722F456D62656464656444651C
:104CE8007369676E2F5250323034302F7069636F9A
:104CF8002D73646B2F7372632F7270325F636F6DE5
:104D08006D6F6E2F7069636F5F646F75626C652F6E
:104D1800646F75626C655F696E69745F726F6D2E22
:104D2800630000002A282875696E74385F74202A89
:104D380029726F6D5F7461626C652D3229202A209B
:104D480034203E3D2053465F5441424C455F563225
:104D58005F53495A450000002F686F6D652F6167E2
:104D6800722F456D62656464656444657369676E36
:104D78002F5250323034302F7069636F2D73646B4B
:104D88002F7372632F7270325F636F6D6D6F6E2F4A
:104D98007069636F5F666C6F61742F666C6F6174A6
:104DA8005F696E69745F726F6D2E6300646562750A
:104DB80067000000626F6F74325F67656E657269C5
:104DC800635F303368000000312E352E310000005B
:104DD80061646166727569745F666561746865723D
:104DE8005F72703230343000627574746F6E5F7049
:104DF8006F6300004A616E20203520323032340063
:104E08005541525420737464696E000055415254E0
:104E1800207374646F757400554152542073746420
:104E2800696E202F207374646F7574006972715FE6
:104E38006164645F7461696C5F746F5F66726565F5
:104E48005F6C697374000000696E736572745F62E9
:104E580072616E63685F616E645F6C696E6B00009F
:104E68006972715F72656D6F76655F68616E646C9B
:104E7800657200006D616B655F6272616E636800E8
:104E88007265736F6C76655F6272616E636800004D
:104E98006972715F6164645F7368617265645F6899
:104EA800616E646C657200006972715F7365745F2E
:104EB8006578636C75736976655F68616E646C6547
:104EC800720000006D757465785F6578697400001C
:104ED8006D757465785F656E7465725F626C6F631B
:104EE8006B5F756E74696C00616C61726D5F706F79
:104EF8006F6C5F63616E63656C5F616C61726D009E
:104F0800616C61726D5F706F6F6C5F6765745F6411
:104F1800656661756C7400006765745F656E7472B0
:104F2800795F69645F6869676800000070685F6638
:104F38007265655F6E6F64650000000070685F6190
:104F480064645F6368696C645F6E6F646500000029
:104F580070685F696E736572745F6E6F6465000078
:104F680070685F6765745F6E6F6465006164645F35
:104F7800616C61726D5F756E6465725F6C6F636B97
:104F8800000000007570646174655F75735F736914
:104F98006E63655F626F6F7400000000616C617220
:104FA8006D5F706F6F6C5F616C61726D5F63616C78
:104FB8006C6261636B0000006765745F656E747294
:104FC8007900000068617264776172655F616C6185
:104FD800726D5F7365745F74617267657400000059
:104FE8007570646174655F75735F73696E63655F1F
:104FF800626F6F740000000070685F72656D6F7695
:10500800655F616E645F667265655F6E6F6465009B
:1050180070685F72656D6F76655F616E795F6865F0
:105028006164000070685F6164645F6368696C64F0
:105038005F6E6F646500000070685F6765745F6E1F
:105048006F646500636C6F636B5F636F6E6669673F
:1050580075726500706C6C5F696E697400000000A1
:1050680072756E74696D655F696E69740000000021
:10507800BE2C0010D62C0010D62C0010CA2C001004
:10508800D62C0010D62C0010D62C0010D62C0010D0
:10509800D62C0010D62C0010D62C0010B22C0010E4
:1050A800D62C0010A62C0010D62C0010D62C0010E0
:1050B8009A2C0010A62D0010CC2D0010EE2D0010FB
:1050C800CC2D0010862D0010CC2D0010CC2D0010FA
:1050D800CC2D0010CC2D0010CC2D0010CC2D0010A4
:1050E800CC2D0010C22D0010CC2D0010CC2D00109E
:1050F800CC2D0010CC2D0010CC2D0010FA2D001056
:105108005E320010743200107432001074320010D5
:1051180074320010743200107432001074320010AF
:10512800743200107432001074320010743200109F
:10513800743200107432001074320010743200108F
:10514800743200107432001074320010743200107F
:10515800743200107432001074320010743200106F
:10516800743200107432001074320010743200105F
:10517800743200107432001074320010743200104F
:10518800A030001062300010A030001074320010FF
:10519800743200107432001074320010743200102F
:1051A800743200107432001074320010743200101F
:1051B800743200107432001074320010743200100F
:1051C800743200107432001074320010462E001031
:1051D80074320010743200107432001074320010EF
:1051E80074320010743200107432001074320010DF
:1051F80074320010462E0010EE300010462E0010BB
:10520800A030001062300010A03000100000000034
:10521800000000000000F03F0000000000002440F3
:1052280000000000000059400000000000408F40CE
:10523800000000000088C34000000000006AF84039
:105248000000000080842E4100000000D01263415D
:105258000000000084D797410000000065CDCD41D3
:105268005F5F61656162695F646F75626C655F69E4
:105278006E6974005F5F61656162695F666C6F612A
:10528800745F696E6974000006005250D3F075426D
:10529800B44D001006005250E182887FBC4D0010CA
:1052A80006005250BBFF3CB6D84D00100D0A000056
:1052B8007570646174655F75735F73696E63655F4C
:1052C800626F6F74000000000600525053B4F4A1DE
:0C52D800204E0010080052509200000010
:1052E400905200109C52001088020010A852001026
:1052F40094020010A0020010AC020010DC52001056
:04530400D052001073
:1053080003000068EFF3108C72B60268002AFCD024
:10531800BFF35F8F04229A56002A0BDB002910D0B6
:105328000A6000201B68BFF35F8F00221A608CF3AD
:1053380010887047D0221206127852B21A710120D2
:10534800F0E70020EEE70000F8B5CE46474680B506
:105358000400170098460368002B20D0D0231B06B2
:105368001B785BB299462668EFF3108C72B63568E5
:10537800002DFCD0BFF35F8F04256557002D14DB8B
:105388002368BFF35F8F00221A608CF310883800FF
:10539800414600F061F80028E5D000200FE00A4BF4
:1053A8000A4A0B48852100F05FF84B4623712368B1
:1053B800BFF35F8F00221A608CF310880120C0BCF5
:1053C800B946B046F8BDC046C4450010D84E0010D6
:1053D8007C45001070B582B0060015001C0001A9BC
:1053E800FFF78EFF002807D1019B5BB2D02212067F
:1053F800127852B2934201D102B070BD2A00230044
:105408003000FFF7A1FFF7E710B50268EFF310814E
:1054180072B61368002BFCD0BFF35F8F0423C3560A
:10542800002B0ADBFF2303710368BFF35F8F0022A1
:105438001A6081F3108840BF10BD034B034A04482B
:10544800B42100F011F8C046D8450010CC4E001029
:105458007C4500107047C04601B40248844601BC30
:10546800604700BF7D14001001B40248844601BCA7
:10547800604700BFC11F00101000000000000000BE
:105488000000010000000000000000000000020011
:105498000000000000000000000003000000000001
:1054A800000000000000FF000000000001B548688F
:1054B80001318E460047704609380149884701BDC9
:1054C800BD0A00109C02002000000000100300200C
:1054D800F005002000000000000000000006002089
:1054E80000000000000000001000000000000000A4
:1054F800503300004C330000543300005233000096
:105508004D5300004D430000533400004334000065
:10551800613F001000000000813F001005400010AE
:105528000000000000010000A405002000000000A9
:1055380000000000893B0010D9320010BD3900106E
:0C554800013B0010FD420010BD020010ED
:04000005100001E9FD
:00000001FF
